{
  "contractName": "AnchorContract",
  "abi": [
    {
      "inputs": [],
      "payable": false,
      "stateMutability": "nonpayable",
      "type": "constructor"
    },
    {
      "constant": false,
      "inputs": [
        {
          "internalType": "string",
          "name": "anchor",
          "type": "string"
        },
        {
          "internalType": "string",
          "name": "newHash",
          "type": "string"
        },
        {
          "internalType": "string",
          "name": "lastHash",
          "type": "string"
        },
        {
          "internalType": "string",
          "name": "digitalProof",
          "type": "string"
        },
        {
          "internalType": "string",
          "name": "ZKPValue",
          "type": "string"
        }
      ],
      "name": "addAnchor",
      "outputs": [],
      "payable": false,
      "stateMutability": "nonpayable",
      "type": "function"
    },
    {
      "constant": true,
      "inputs": [
        {
          "internalType": "string",
          "name": "anchor",
          "type": "string"
        }
      ],
      "name": "getAnchorVersions",
      "outputs": [
        {
          "components": [
            {
              "components": [
                {
                  "internalType": "string",
                  "name": "newHash",
                  "type": "string"
                },
                {
                  "internalType": "string",
                  "name": "lastHash",
                  "type": "string"
                }
              ],
              "internalType": "struct AnchorContract.AnchorHash",
              "name": "hash",
              "type": "tuple"
            },
            {
              "internalType": "string",
              "name": "DigitalProof",
              "type": "string"
            },
            {
              "internalType": "string",
              "name": "ZKPValue",
              "type": "string"
            }
          ],
          "internalType": "struct AnchorContract.AnchorValue[]",
          "name": "",
          "type": "tuple[]"
        }
      ],
      "payable": false,
      "stateMutability": "view",
      "type": "function"
    }
  ],
  "bytecode": "0x608060405234801561001057600080fd5b50610c3a806100206000396000f3fe608060405234801561001057600080fd5b50600436106100365760003560e01c8063ab46b0241461003b578063ee6668e31461006b575b600080fd5b610055600480360361005091908101906107e2565b610087565b6040516100629190610abe565b60405180910390f35b61008560048036036100809190810190610823565b6104c3565b005b6060600060018360405161009b9190610aa7565b90815260200160405180910390208054905014156100f65760006040519080825280602002602001820160405280156100ee57816020015b6100db610667565b8152602001906001900390816100d35790505b5090506104be565b60606001836040516101089190610aa7565b908152602001604051809103902080548060200260200160405190810160405280929190818152602001828054801561016057602002820191906000526020600020905b81548152602001906001019080831161014c575b50505050509050606081516040519080825280602002602001820160405280156101a457816020015b610191610667565b8152602001906001900390816101895790505b50905060008090505b82518110156104b75761049360008483815181106101c757fe5b6020026020010151815481106101d957fe5b906000526020600020906004020160405180606001604052908160008201604051806040016040529081600082018054600181600116156101000203166002900480601f01602080910402602001604051908101604052809291908181526020018280546001816001161561010002031660029004801561029b5780601f106102705761010080835404028352916020019161029b565b820191906000526020600020905b81548152906001019060200180831161027e57829003601f168201915b50505050508152602001600182018054600181600116156101000203166002900480601f01602080910402602001604051908101604052809291908181526020018280546001816001161561010002031660029004801561033d5780601f106103125761010080835404028352916020019161033d565b820191906000526020600020905b81548152906001019060200180831161032057829003601f168201915b5050505050815250508152602001600282018054600181600116156101000203166002900480601f0160208091040260200160405190810160405280929190818152602001828054600181600116156101000203166002900480156103e35780601f106103b8576101008083540402835291602001916103e3565b820191906000526020600020905b8154815290600101906020018083116103c657829003601f168201915b50505050508152602001600382018054600181600116156101000203166002900480601f0160208091040260200160405190810160405280929190818152602001828054600181600116156101000203166002900480156104855780601f1061045a57610100808354040283529160200191610485565b820191906000526020600020905b81548152906001019060200180831161046857829003601f168201915b5050505050815250506105e7565b82828151811061049f57fe5b602002602001018190525080806001019150506101ad565b5080925050505b919050565b6104cb61068e565b6104d78585858561061a565b905060008190806001815401808255809150509060018203906000526020600020906004020160009091929091909150600082015181600001600082015181600001908051906020019061052c9291906106b5565b5060208201518160010190805190602001906105499291906106b5565b50505060208201518160020190805190602001906105689291906106b5565b5060408201518160030190805190602001906105859291906106b5565b50505050600060016000805490500390506001876040516105a69190610aa7565b908152602001604051809103902081908060018154018082558091505090600182039060005260206000200160009091929091909150555050505050505050565b6105ef61068e565b6106138260000151600001518360000151602001518460200151856040015161061a565b9050919050565b61062261068e565b61062a610735565b6040518060400160405280878152602001868152509050604051806060016040528082815260200185815260200184815250915050949350505050565b604051806060016040528061067a61074f565b815260200160608152602001606081525090565b60405180606001604052806106a161074f565b815260200160608152602001606081525090565b828054600181600116156101000203166002900490600052602060002090601f016020900481019282601f106106f657805160ff1916838001178555610724565b82800160010185558215610724579182015b82811115610723578251825591602001919060010190610708565b5b5090506107319190610769565b5090565b604051806040016040528060608152602001606081525090565b604051806040016040528060608152602001606081525090565b61078b91905b8082111561078757600081600090555060010161076f565b5090565b90565b600082601f83011261079f57600080fd5b81356107b26107ad82610b0d565b610ae0565b915080825260208301602083018583830111156107ce57600080fd5b6107d9838284610ba4565b50505092915050565b6000602082840312156107f457600080fd5b600082013567ffffffffffffffff81111561080e57600080fd5b61081a8482850161078e565b91505092915050565b600080600080600060a0868803121561083b57600080fd5b600086013567ffffffffffffffff81111561085557600080fd5b6108618882890161078e565b955050602086013567ffffffffffffffff81111561087e57600080fd5b61088a8882890161078e565b945050604086013567ffffffffffffffff8111156108a757600080fd5b6108b38882890161078e565b935050606086013567ffffffffffffffff8111156108d057600080fd5b6108dc8882890161078e565b925050608086013567ffffffffffffffff8111156108f957600080fd5b6109058882890161078e565b9150509295509295909350565b600061091e8383610a49565b905092915050565b600061093182610b49565b61093b8185610b77565b93508360208202850161094d85610b39565b8060005b85811015610989578484038952815161096a8582610912565b945061097583610b6a565b925060208a01995050600181019050610951565b50829750879550505050505092915050565b60006109a682610b5f565b6109b08185610b99565b93506109c0818560208601610bb3565b80840191505092915050565b60006109d782610b54565b6109e18185610b88565b93506109f1818560208601610bb3565b6109fa81610be6565b840191505092915050565b60006040830160008301518482036000860152610a2282826109cc565b91505060208301518482036020860152610a3c82826109cc565b9150508091505092915050565b60006060830160008301518482036000860152610a668282610a05565b91505060208301518482036020860152610a8082826109cc565b91505060408301518482036040860152610a9a82826109cc565b9150508091505092915050565b6000610ab3828461099b565b915081905092915050565b60006020820190508181036000830152610ad88184610926565b905092915050565b6000604051905081810181811067ffffffffffffffff82111715610b0357600080fd5b8060405250919050565b600067ffffffffffffffff821115610b2457600080fd5b601f19601f8301169050602081019050919050565b6000819050602082019050919050565b600081519050919050565b600081519050919050565b600081519050919050565b6000602082019050919050565b600082825260208201905092915050565b600082825260208201905092915050565b600081905092915050565b82818337600083830152505050565b60005b83811015610bd1578082015181840152602081019050610bb6565b83811115610be0576000848401525b50505050565b6000601f19601f830116905091905056fea365627a7a72315820e97ae969979660b5800dc2b020a25f2440bb370a8e9233c5891ecf7c4f2e8b466c6578706572696d656e74616cf564736f6c63430005100040",
  "source": "pragma solidity >= 0.5.0 < 0.7.0;\r\npragma experimental ABIEncoderV2;\r\n\r\ncontract AnchorContract {\r\n\r\n    struct AnchorHash {\r\n        string newHash;\r\n        string lastHash;\r\n    }\r\n\r\n    struct AnchorValue {\r\n        AnchorHash hash;\r\n        string DigitalProof;\r\n        string ZKPValue;\r\n    }\r\n\r\n    // store all anchors\r\n    AnchorValue[] anchorStorage;\r\n    //keep a mapping between anchor(keySSI) and it's versions\r\n    mapping (string => uint[]) anchorVersions;\r\n\r\n\r\n\r\n\r\n    constructor() public {\r\n\r\n    }\r\n\r\n    function addAnchor(string memory anchor, string memory newHash, string memory lastHash, string memory digitalProof, string memory ZKPValue) public {\r\n            //create new anchor value\r\n            AnchorValue memory anchorValue = buildAnchorValue(newHash,lastHash,digitalProof,ZKPValue);\r\n            anchorStorage.push(anchorValue);\r\n            uint versionIndex = anchorStorage.length - 1;\r\n        //update number of versions available for that anchor\r\n            anchorVersions[anchor].push(versionIndex);\r\n    }\r\n\r\n    function buildAnchorValue(string memory newHash, string memory lastHash, string memory digitalProof, string memory ZKPValue) private pure returns (AnchorValue memory){\r\n        AnchorHash memory anchorHash = AnchorHash(newHash, lastHash);\r\n        return AnchorValue(anchorHash, digitalProof, ZKPValue);\r\n    }\r\n\r\n    function copyAnchorValue(AnchorValue memory anchorValue) private pure returns (AnchorValue memory){\r\n        return buildAnchorValue(anchorValue.hash.newHash, anchorValue.hash.lastHash, anchorValue.DigitalProof, anchorValue.ZKPValue);\r\n    }\r\n\r\n    function getAnchorVersions(string memory anchor) public view returns (AnchorValue[] memory) {\r\n        if (anchorVersions[anchor].length == 0)\r\n        {\r\n            return new AnchorValue[](0);\r\n        }\r\n        uint[] memory indexList = anchorVersions[anchor];\r\n        AnchorValue[] memory result = new AnchorValue[] (indexList.length);\r\n        for (uint i=0;i<indexList.length;i++){\r\n            result[i] = copyAnchorValue(anchorStorage[indexList[i]]);\r\n        }\r\n\r\n        return result;\r\n    }\r\n//    function anchorExits (string anchor)\r\n//    {\r\n //       return anchorVersions[anchor].length != 0;\r\n  //  }\r\n}",
  "sourcePath": "D:/Pharma/Truffle/p5/Ethereum/contracts/AnchorContract.sol",
  "compiler": {
    "name": "solc",
    "version": "0.5.16+commit.9c3226ce.Emscripten.clang"
  },
  "schemaVersion": "3.2.5",
  "updatedAt": "2020-11-02T07:12:04.247Z",
  "networkType": "ethereum",
  "devdoc": {
    "methods": {}
  },
  "userdoc": {
    "methods": {}
  }
}