{
  "contractName": "AnchorContract",
  "abi": [
    {
      "inputs": [],
      "payable": false,
      "stateMutability": "nonpayable",
      "type": "constructor"
    },
    {
      "anonymous": false,
      "inputs": [
        {
          "indexed": true,
          "internalType": "uint256",
          "name": "statusCode",
          "type": "uint256"
        }
      ],
      "name": "InvokeStatus",
      "type": "event"
    },
    {
      "constant": false,
      "inputs": [
        {
          "internalType": "string",
          "name": "anchorID",
          "type": "string"
        },
        {
          "internalType": "string",
          "name": "keySSIType",
          "type": "string"
        },
        {
          "internalType": "string",
          "name": "controlString",
          "type": "string"
        },
        {
          "internalType": "string",
          "name": "vn",
          "type": "string"
        },
        {
          "internalType": "string",
          "name": "newHashLinkSSI",
          "type": "string"
        },
        {
          "internalType": "string",
          "name": "ZKPValue",
          "type": "string"
        },
        {
          "internalType": "string",
          "name": "lastHashLinkSSI",
          "type": "string"
        },
        {
          "internalType": "string",
          "name": "signature",
          "type": "string"
        },
        {
          "internalType": "string",
          "name": "publicKey",
          "type": "string"
        }
      ],
      "name": "addAnchor",
      "outputs": [],
      "payable": false,
      "stateMutability": "nonpayable",
      "type": "function"
    },
    {
      "constant": true,
      "inputs": [
        {
          "internalType": "string",
          "name": "anchor",
          "type": "string"
        }
      ],
      "name": "getAnchorVersions",
      "outputs": [
        {
          "components": [
            {
              "components": [
                {
                  "internalType": "string",
                  "name": "newHashLinkSSI",
                  "type": "string"
                },
                {
                  "internalType": "string",
                  "name": "lastHashLinkSSI",
                  "type": "string"
                }
              ],
              "internalType": "struct AnchorContract.AnchorHash",
              "name": "hash",
              "type": "tuple"
            },
            {
              "internalType": "string",
              "name": "ZKPValue",
              "type": "string"
            }
          ],
          "internalType": "struct AnchorContract.AnchorValue[]",
          "name": "",
          "type": "tuple[]"
        }
      ],
      "payable": false,
      "stateMutability": "view",
      "type": "function"
    }
  ],
  "bytecode": "0x608060405234801561001057600080fd5b50611006806100206000396000f3fe608060405234801561001057600080fd5b50600436106100365760003560e01c80639a74bbc71461003b578063ab46b02414610057575b600080fd5b61005560048036036100509190810190610a21565b610087565b005b610071600480360361006c91908101906109e0565b610277565b60405161007e9190610e3e565b60405180910390f35b60006100938a85610611565b905060008114156100d25760647f4946ccdaf82fd5a93c40e96bfc3e4486f2b1d95879aecd4b186cd3e2adb3f4b960405160405180910390a25061026c565b7fffffffffffffffffffffffffffffffffffffffffffffffffffffffffffffffff81141561013d576101038861079b565b1561013c5760657f4946ccdaf82fd5a93c40e96bfc3e4486f2b1d95879aecd4b186cd3e2adb3f4b960405160405180910390a25061026c565b5b60017f4946ccdaf82fd5a93c40e96bfc3e4486f2b1d95879aecd4b186cd3e2adb3f4b960405160405180910390a2610173610835565b61017e8786886107c1565b90506000819080600181540180825580915050906001820390600052602060002090600302016000909192909190915060008201518160000160008201518160000190805190602001906101d3929190610855565b5060208201518160010190805190602001906101f0929190610855565b505050602082015181600201908051906020019061020f929190610855565b505050506000600160008054905003905060018c6040516102309190610e27565b90815260200160405180910390208190806001815401808255809150509060018203906000526020600020016000909192909190915055505050505b505050505050505050565b6060600060018360405161028b9190610e27565b90815260200160405180910390208054905014156102e65760006040519080825280602002602001820160405280156102de57816020015b6102cb6108d5565b8152602001906001900390816102c35790505b50905061060c565b60606001836040516102f89190610e27565b908152602001604051809103902080548060200260200160405190810160405280929190818152602001828054801561035057602002820191906000526020600020905b81548152602001906001019080831161033c575b505050505090506060815160405190808252806020026020018201604052801561039457816020015b6103816108d5565b8152602001906001900390816103795790505b50905060008090505b8251811015610605576105e160008483815181106103b757fe5b6020026020010151815481106103c957fe5b906000526020600020906003020160405180604001604052908160008201604051806040016040529081600082018054600181600116156101000203166002900480601f01602080910402602001604051908101604052809291908181526020018280546001816001161561010002031660029004801561048b5780601f106104605761010080835404028352916020019161048b565b820191906000526020600020905b81548152906001019060200180831161046e57829003601f168201915b50505050508152602001600182018054600181600116156101000203166002900480601f01602080910402602001604051908101604052809291908181526020018280546001816001161561010002031660029004801561052d5780601f106105025761010080835404028352916020019161052d565b820191906000526020600020905b81548152906001019060200180831161051057829003601f168201915b5050505050815250508152602001600282018054600181600116156101000203166002900480601f0160208091040260200160405190810160405280929190818152602001828054600181600116156101000203166002900480156105d35780601f106105a8576101008083540402835291602001916105d3565b820191906000526020600020905b8154815290600101906020018083116105b657829003601f168201915b505050505081525050610807565b8282815181106105ed57fe5b6020026020010181905250808060010191505061039d565b5080925050505b919050565b6000806001846040516106249190610e27565b9081526020016040518091039020805490501415610664577fffffffffffffffffffffffffffffffffffffffffffffffffffffffffffffffff9050610795565b60006001846040516106769190610e27565b9081526020016040518091039020600180866040516106959190610e27565b90815260200160405180910390208054905003815481106106b257fe5b906000526020600020015490506002836040516106cf9190610df9565b602060405180830381855afa1580156106ec573d6000803e3d6000fd5b5050506040513d601f19601f8201168201806040525061070f91908101906109b7565b60026000838154811061071e57fe5b906000526020600020906003020160000160000160405161073f9190610e10565b602060405180830381855afa15801561075c573d6000803e3d6000fd5b5050506040513d601f19601f8201168201806040525061077f91908101906109b7565b141561078f576001915050610795565b60009150505b92915050565b600060608290506000815114156107b65760019150506107bc565b60009150505b919050565b6107c9610835565b6107d16108f5565b60405180604001604052808681526020018581525090506040518060400160405280828152602001848152509150509392505050565b61080f610835565b61082e82600001516000015183600001516020015184602001516107c1565b9050919050565b604051806040016040528061084861090f565b8152602001606081525090565b828054600181600116156101000203166002900490600052602060002090601f016020900481019282601f1061089657805160ff19168380011785556108c4565b828001600101855582156108c4579182015b828111156108c35782518255916020019190600101906108a8565b5b5090506108d19190610929565b5090565b60405180604001604052806108e861090f565b8152602001606081525090565b604051806040016040528060608152602001606081525090565b604051806040016040528060608152602001606081525090565b61094b91905b8082111561094757600081600090555060010161092f565b5090565b90565b60008151905061095d81610fac565b92915050565b600082601f83011261097457600080fd5b813561098761098282610e8d565b610e60565b915080825260208301602083018583830111156109a357600080fd5b6109ae838284610f59565b50505092915050565b6000602082840312156109c957600080fd5b60006109d78482850161094e565b91505092915050565b6000602082840312156109f257600080fd5b600082013567ffffffffffffffff811115610a0c57600080fd5b610a1884828501610963565b91505092915050565b60008060008060008060008060006101208a8c031215610a4057600080fd5b60008a013567ffffffffffffffff811115610a5a57600080fd5b610a668c828d01610963565b99505060208a013567ffffffffffffffff811115610a8357600080fd5b610a8f8c828d01610963565b98505060408a013567ffffffffffffffff811115610aac57600080fd5b610ab88c828d01610963565b97505060608a013567ffffffffffffffff811115610ad557600080fd5b610ae18c828d01610963565b96505060808a013567ffffffffffffffff811115610afe57600080fd5b610b0a8c828d01610963565b95505060a08a013567ffffffffffffffff811115610b2757600080fd5b610b338c828d01610963565b94505060c08a013567ffffffffffffffff811115610b5057600080fd5b610b5c8c828d01610963565b93505060e08a013567ffffffffffffffff811115610b7957600080fd5b610b858c828d01610963565b9250506101008a013567ffffffffffffffff811115610ba357600080fd5b610baf8c828d01610963565b9150509295985092959850929598565b6000610bcb8383610db5565b905092915050565b6000610bde82610ede565b610be88185610f17565b935083602082028501610bfa85610eb9565b8060005b85811015610c365784840389528151610c178582610bbf565b9450610c2283610f0a565b925060208a01995050600181019050610bfe565b50829750879550505050505092915050565b6000610c5382610ee9565b610c5d8185610f28565b9350610c6d818560208601610f68565b80840191505092915050565b600081546001811660008114610c965760018114610cbb57610cff565b607f6002830416610ca78187610f28565b955060ff1983168652808601935050610cff565b60028204610cc98187610f28565b9550610cd485610ec9565b60005b82811015610cf657815481890152600182019150602081019050610cd7565b82880195505050505b505092915050565b6000610d1282610eff565b610d1c8185610f44565b9350610d2c818560208601610f68565b80840191505092915050565b6000610d4382610ef4565b610d4d8185610f33565b9350610d5d818560208601610f68565b610d6681610f9b565b840191505092915050565b60006040830160008301518482036000860152610d8e8282610d38565b91505060208301518482036020860152610da88282610d38565b9150508091505092915050565b60006040830160008301518482036000860152610dd28282610d71565b91505060208301518482036020860152610dec8282610d38565b9150508091505092915050565b6000610e058284610c48565b915081905092915050565b6000610e1c8284610c79565b915081905092915050565b6000610e338284610d07565b915081905092915050565b60006020820190508181036000830152610e588184610bd3565b905092915050565b6000604051905081810181811067ffffffffffffffff82111715610e8357600080fd5b8060405250919050565b600067ffffffffffffffff821115610ea457600080fd5b601f19601f8301169050602081019050919050565b6000819050602082019050919050565b60008190508160005260206000209050919050565b600081519050919050565b600081519050919050565b600081519050919050565b600081519050919050565b6000602082019050919050565b600082825260208201905092915050565b600081905092915050565b600082825260208201905092915050565b600081905092915050565b6000819050919050565b82818337600083830152505050565b60005b83811015610f86578082015181840152602081019050610f6b565b83811115610f95576000848401525b50505050565b6000601f19601f8301169050919050565b610fb581610f4f565b8114610fc057600080fd5b5056fea365627a7a72315820f25dde697f0e1517110e6cd5f16e512745378806f6b93ef90c33eb3b28a4eb986c6578706572696d656e74616cf564736f6c63430005100040",
  "source": "pragma solidity >= 0.5.0 < 0.7.0;\r\npragma experimental ABIEncoderV2;\r\n\r\ncontract AnchorContract {\r\n\r\n    event InvokeStatus(uint indexed statusCode);\r\n\r\n    struct AnchorHash {\r\n        string newHashLinkSSI;\r\n        string lastHashLinkSSI;\r\n    }\r\n\r\n    struct AnchorValue {\r\n        AnchorHash hash;\r\n        string ZKPValue;\r\n    }\r\n\r\n    // store all anchors\r\n    AnchorValue[] anchorStorage;\r\n    //keep a mapping between anchor(keySSI) and it's versions\r\n    mapping (string => uint[]) anchorVersions;\r\n\r\n\r\n\r\n\r\n    constructor() public {\r\n\r\n\r\n    }\r\n\r\n\r\n    // public function\r\n    function addAnchor(string memory anchorID, string memory keySSIType, string memory controlString,\r\n        string memory vn, string memory newHashLinkSSI, string memory ZKPValue, string memory lastHashLinkSSI,\r\n        string memory signature, string memory publicKey) public {\r\n            //todo : implementa validation process\r\n            //todo : add error management\r\n            //todo : add new mapping between anchorID and controlString\r\n            //todo : use controlString if is already defined for anchorID and ignore the parameter\r\n            int validateAnchorContinuityResult = validateAnchorContinuity(anchorID, lastHashLinkSSI);\r\n            if (validateAnchorContinuityResult == 0)\r\n            {\r\n                //hash link are out of sync\r\n                emit InvokeStatus(100);\r\n                return;\r\n            }\r\n\r\n            if (validateAnchorContinuityResult == -1)\r\n            {\r\n                //anchor is new and we must check controlString\r\n                if (isStringEmpty(controlString))\r\n                {\r\n                    emit InvokeStatus(101);\r\n                    return;\r\n                }\r\n            }\r\n\r\n            emit InvokeStatus(1);\r\n\r\n            //create new anchor value\r\n            AnchorValue memory anchorValue = buildAnchorValue(newHashLinkSSI,lastHashLinkSSI,ZKPValue);\r\n            anchorStorage.push(anchorValue);\r\n            uint versionIndex = anchorStorage.length - 1;\r\n            //update number of versions available for that anchor\r\n            anchorVersions[anchorID].push(versionIndex);\r\n    }\r\n\r\n    function isStringEmpty(string memory data) private pure returns (bool)\r\n    {\r\n        bytes memory bdata = bytes(data);\r\n        if (bdata.length == 0)\r\n        {\r\n            return true;\r\n        }\r\n        return false;\r\n    }\r\n\r\n    function validateAnchorContinuity(string memory anchorID, string memory lastHashLinkSSI) private view returns (int)\r\n    {\r\n        if (anchorVersions[anchorID].length == 0)\r\n        {\r\n            //first anchor to be added\r\n            return -1;\r\n        }\r\n        uint index = anchorVersions[anchorID][anchorVersions[anchorID].length-1];\r\n\r\n//        if (StringUtils.equal(anchorStorage[index].hash.lastHashLinkSSI, lastHashLinkSSI))\r\n//        {\r\n//            return 1;\r\n//        }\r\n\r\n        //can import StringUtils contract or compare hashes\r\n        //hash compare seems faster\r\n        if (sha256(bytes(anchorStorage[index].hash.newHashLinkSSI)) == sha256(bytes(lastHashLinkSSI)))\r\n        {\r\n            //last hash link from contract is a match with the one passed\r\n            return 1;\r\n        }\r\n        //hash link is out of sync. the last hash link stored doesnt match with the last hash link passed\r\n        return 0;\r\n    }\r\n\r\n    function buildAnchorValue(string memory newHashLinkSSI, string memory lastHashLinkSSI, string memory ZKPValue) private pure returns (AnchorValue memory){\r\n        AnchorHash memory anchorHash = AnchorHash(newHashLinkSSI, lastHashLinkSSI);\r\n        return AnchorValue(anchorHash, ZKPValue);\r\n    }\r\n\r\n    function copyAnchorValue(AnchorValue memory anchorValue) private pure returns (AnchorValue memory){\r\n        return buildAnchorValue(anchorValue.hash.newHashLinkSSI, anchorValue.hash.lastHashLinkSSI, anchorValue.ZKPValue);\r\n    }\r\n\r\n    // public function\r\n    function getAnchorVersions(string memory anchor) public view returns (AnchorValue[] memory) {\r\n        if (anchorVersions[anchor].length == 0)\r\n        {\r\n            return new AnchorValue[](0);\r\n        }\r\n        uint[] memory indexList = anchorVersions[anchor];\r\n        AnchorValue[] memory result = new AnchorValue[] (indexList.length);\r\n        for (uint i=0;i<indexList.length;i++){\r\n            result[i] = copyAnchorValue(anchorStorage[indexList[i]]);\r\n        }\r\n\r\n        return result;\r\n\r\n    }\r\n\r\n}",
  "sourcePath": "D:/Pharma/Truffle/Ethereum/ethereum-anchoring/SmartContract/contracts/AnchorContract.sol",
  "compiler": {
    "name": "solc",
    "version": "0.5.16+commit.9c3226ce.Emscripten.clang"
  },
  "schemaVersion": "3.2.5",
  "updatedAt": "2020-11-03T13:05:11.231Z",
  "networkType": "ethereum",
  "devdoc": {
    "methods": {}
  },
  "userdoc": {
    "methods": {}
  }
}