{
  "contractName": "AnchorContract",
  "abi": [
    {
      "inputs": [],
      "payable": false,
      "stateMutability": "nonpayable",
      "type": "constructor"
    },
    {
      "anonymous": false,
      "inputs": [
        {
          "indexed": true,
          "internalType": "uint256",
          "name": "statusCode",
          "type": "uint256"
        }
      ],
      "name": "InvokeStatus",
      "type": "event"
    },
    {
      "constant": false,
      "inputs": [
        {
          "internalType": "string",
          "name": "anchorID",
          "type": "string"
        },
        {
          "internalType": "string",
          "name": "keySSIType",
          "type": "string"
        },
        {
          "internalType": "string",
          "name": "controlString",
          "type": "string"
        },
        {
          "internalType": "string",
          "name": "vn",
          "type": "string"
        },
        {
          "internalType": "string",
          "name": "newHashLinkSSI",
          "type": "string"
        },
        {
          "internalType": "string",
          "name": "ZKPValue",
          "type": "string"
        },
        {
          "internalType": "string",
          "name": "lastHashLinkSSI",
          "type": "string"
        },
        {
          "internalType": "bytes",
          "name": "signature",
          "type": "bytes"
        },
        {
          "internalType": "bytes",
          "name": "publicKey",
          "type": "bytes"
        }
      ],
      "name": "addAnchor",
      "outputs": [],
      "payable": false,
      "stateMutability": "nonpayable",
      "type": "function"
    },
    {
      "constant": true,
      "inputs": [
        {
          "internalType": "string",
          "name": "source",
          "type": "string"
        }
      ],
      "name": "stringToBytes32",
      "outputs": [
        {
          "internalType": "bytes32",
          "name": "result",
          "type": "bytes32"
        }
      ],
      "payable": false,
      "stateMutability": "pure",
      "type": "function"
    },
    {
      "constant": false,
      "inputs": [
        {
          "internalType": "bytes",
          "name": "publicKey",
          "type": "bytes"
        },
        {
          "internalType": "string",
          "name": "controlString",
          "type": "string"
        }
      ],
      "name": "validatePublicKeyAndControlString",
      "outputs": [
        {
          "internalType": "bool",
          "name": "",
          "type": "bool"
        }
      ],
      "payable": false,
      "stateMutability": "nonpayable",
      "type": "function"
    },
    {
      "constant": false,
      "inputs": [
        {
          "internalType": "string",
          "name": "controlString",
          "type": "string"
        }
      ],
      "name": "v2",
      "outputs": [
        {
          "internalType": "bytes32",
          "name": "",
          "type": "bytes32"
        }
      ],
      "payable": false,
      "stateMutability": "nonpayable",
      "type": "function"
    },
    {
      "constant": false,
      "inputs": [
        {
          "internalType": "bytes",
          "name": "publicKey",
          "type": "bytes"
        }
      ],
      "name": "v1",
      "outputs": [
        {
          "internalType": "bytes32",
          "name": "",
          "type": "bytes32"
        }
      ],
      "payable": false,
      "stateMutability": "nonpayable",
      "type": "function"
    },
    {
      "constant": false,
      "inputs": [
        {
          "internalType": "bytes",
          "name": "publicKey",
          "type": "bytes"
        },
        {
          "internalType": "string",
          "name": "anchorID",
          "type": "string"
        }
      ],
      "name": "validatePublicKeyHash",
      "outputs": [
        {
          "internalType": "int256",
          "name": "",
          "type": "int256"
        }
      ],
      "payable": false,
      "stateMutability": "nonpayable",
      "type": "function"
    },
    {
      "constant": false,
      "inputs": [
        {
          "internalType": "string",
          "name": "anchorID",
          "type": "string"
        },
        {
          "internalType": "string",
          "name": "newHashLinkSSI",
          "type": "string"
        },
        {
          "internalType": "string",
          "name": "ZKPValue",
          "type": "string"
        },
        {
          "internalType": "string",
          "name": "lastHashLinkSSI",
          "type": "string"
        },
        {
          "internalType": "bytes",
          "name": "signature",
          "type": "bytes"
        },
        {
          "internalType": "bytes",
          "name": "publicKey",
          "type": "bytes"
        }
      ],
      "name": "validateSignature",
      "outputs": [
        {
          "internalType": "bool",
          "name": "",
          "type": "bool"
        }
      ],
      "payable": false,
      "stateMutability": "nonpayable",
      "type": "function"
    },
    {
      "constant": true,
      "inputs": [
        {
          "internalType": "bytes",
          "name": "pub",
          "type": "bytes"
        }
      ],
      "name": "calculateAddress",
      "outputs": [
        {
          "internalType": "address",
          "name": "addr",
          "type": "address"
        }
      ],
      "payable": false,
      "stateMutability": "pure",
      "type": "function"
    },
    {
      "constant": true,
      "inputs": [
        {
          "internalType": "bytes",
          "name": "pub",
          "type": "bytes"
        }
      ],
      "name": "get64",
      "outputs": [
        {
          "internalType": "bytes",
          "name": "",
          "type": "bytes"
        }
      ],
      "payable": false,
      "stateMutability": "pure",
      "type": "function"
    },
    {
      "constant": false,
      "inputs": [
        {
          "internalType": "string",
          "name": "anchorID",
          "type": "string"
        },
        {
          "internalType": "string",
          "name": "newHashLinkSSI",
          "type": "string"
        },
        {
          "internalType": "string",
          "name": "ZKPValue",
          "type": "string"
        },
        {
          "internalType": "string",
          "name": "lastHashLinkSSI",
          "type": "string"
        },
        {
          "internalType": "bytes",
          "name": "signature",
          "type": "bytes"
        }
      ],
      "name": "getAddressFromHashAndSig",
      "outputs": [
        {
          "internalType": "address",
          "name": "",
          "type": "address"
        }
      ],
      "payable": false,
      "stateMutability": "nonpayable",
      "type": "function"
    },
    {
      "constant": true,
      "inputs": [
        {
          "internalType": "string",
          "name": "anchorID",
          "type": "string"
        },
        {
          "internalType": "string",
          "name": "newHashLinkSSI",
          "type": "string"
        },
        {
          "internalType": "string",
          "name": "ZKPValue",
          "type": "string"
        },
        {
          "internalType": "string",
          "name": "lastHashLinkSSI",
          "type": "string"
        }
      ],
      "name": "getHashToBeChecked",
      "outputs": [
        {
          "internalType": "bytes32",
          "name": "",
          "type": "bytes32"
        }
      ],
      "payable": false,
      "stateMutability": "view",
      "type": "function"
    },
    {
      "constant": true,
      "inputs": [
        {
          "internalType": "string",
          "name": "anchor",
          "type": "string"
        }
      ],
      "name": "getAnchorVersions",
      "outputs": [
        {
          "components": [
            {
              "components": [
                {
                  "internalType": "string",
                  "name": "newHashLinkSSI",
                  "type": "string"
                },
                {
                  "internalType": "string",
                  "name": "lastHashLinkSSI",
                  "type": "string"
                }
              ],
              "internalType": "struct AnchorContract.AnchorHash",
              "name": "hash",
              "type": "tuple"
            },
            {
              "internalType": "string",
              "name": "ZKPValue",
              "type": "string"
            }
          ],
          "internalType": "struct AnchorContract.AnchorValue[]",
          "name": "",
          "type": "tuple[]"
        }
      ],
      "payable": false,
      "stateMutability": "view",
      "type": "function"
    }
  ],
  "bytecode": "0x608060405234801561001057600080fd5b50611f50806100206000396000f3fe608060405234801561001057600080fd5b50600436106100b45760003560e01c806397653cb71161007157806397653cb7146101c5578063ab46b024146101f5578063b9690fe314610225578063ce43b11014610255578063cfb5192814610285578063e8a4c04e146102b5576100b4565b806309792a47146100b95780632926865d146100d55780632d82f504146101055780632f9b595d14610135578063845429dc146101655780638a74bf9914610195575b600080fd5b6100d360048036036100ce91908101906116c6565b6102e5565b005b6100ef60048036036100ea919081019061134e565b610509565b6040516100fc9190611c56565b60405180910390f35b61011f600480360361011a91908101906113ba565b61056d565b60405161012c9190611c71565b60405180910390f35b61014f600480360361014a91908101906113fb565b61057f565b60405161015c9190611c71565b60405180910390f35b61017f600480360361017a919081019061130d565b6106a4565b60405161018c9190611c71565b60405180910390f35b6101af60048036036101aa919081019061130d565b6106fd565b6040516101bc9190611cd1565b60405180910390f35b6101df60048036036101da91908101906114be565b61073b565b6040516101ec9190611c19565b60405180910390f35b61020f600480360361020a91908101906113ba565b61075d565b60405161021c9190611c34565b60405180910390f35b61023f600480360361023a919081019061134e565b610af7565b60405161024c9190611cf3565b60405180910390f35b61026f600480360361026a91908101906115ad565b610c48565b60405161027c9190611c56565b60405180910390f35b61029f600480360361029a91908101906113ba565b610c99565b6040516102ac9190611c71565b60405180910390f35b6102cf60048036036102ca919081019061130d565b610cc4565b6040516102dc9190611c19565b60405180910390f35b60006102f28a8588610cef565b905060008114156103315760647f4946ccdaf82fd5a93c40e96bfc3e4486f2b1d95879aecd4b186cd3e2adb3f4b960405160405180910390a2506104fe565b7fffffffffffffffffffffffffffffffffffffffffffffffffffffffffffffffff8114156103cf5761036288610f2a565b1561039b5760657f4946ccdaf82fd5a93c40e96bfc3e4486f2b1d95879aecd4b186cd3e2adb3f4b960405160405180910390a2506104fe565b8760028b6040516103ac9190611b93565b908152602001604051809103902090805190602001906103cd92919061108e565b505b6103d761110e565b6103e2878688610f50565b905060008190806001815401808255809150509060018203906000526020600020906003020160009091929091909150600082015181600001600082015181600001908051906020019061043792919061112e565b50602082015181600101908051906020019061045492919061112e565b505050602082015181600201908051906020019061047392919061112e565b505050506000600160008054905003905060018c6040516104949190611b93565b908152602001604051809103902081908060018154018082558091505090600182039060005260206000200160009091929091909150555060c87f4946ccdaf82fd5a93c40e96bfc3e4486f2b1d95879aecd4b186cd3e2adb3f4b960405160405180910390a25050505b505050505050505050565b600061051482610c99565b6002846040516105249190611b65565b602060405180830381855afa158015610541573d6000803e3d6000fd5b5050506040513d601f19601f8201168201806040525061056491908101906112e4565b14905092915050565b600061057882610c99565b9050919050565b6000806001866040516105929190611b93565b90815260200160405180910390208054905014156106245760028585856040516020016105c193929190611baa565b6040516020818303038152906040526040516105dd9190611b65565b602060405180830381855afa1580156105fa573d6000803e3d6000fd5b5050506040513d601f19601f8201168201806040525061061d91908101906112e4565b905061069c565b60028585858560405160200161063d9493929190611bdb565b6040516020818303038152906040526040516106599190611b65565b602060405180830381855afa158015610676573d6000803e3d6000fd5b5050506040513d601f19601f8201168201806040525061069991908101906112e4565b90505b949350505050565b60006002826040516106b69190611b65565b602060405180830381855afa1580156106d3573d6000803e3d6000fd5b5050506040513d601f19601f820116820180604052506106f691908101906112e4565b9050919050565b606060008060218401519150604184015190508181604051602001610723929190611b39565b60405160208183030381529060405292505050919050565b600061075261074c8787878761057f565b83610f96565b905095945050505050565b606060006001836040516107719190611b93565b90815260200160405180910390208054905014156107cc5760006040519080825280602002602001820160405280156107c457816020015b6107b16111ae565b8152602001906001900390816107a95790505b509050610af2565b60606001836040516107de9190611b93565b908152602001604051809103902080548060200260200160405190810160405280929190818152602001828054801561083657602002820191906000526020600020905b815481526020019060010190808311610822575b505050505090506060815160405190808252806020026020018201604052801561087a57816020015b6108676111ae565b81526020019060019003908161085f5790505b50905060008090505b8251811015610aeb57610ac7600084838151811061089d57fe5b6020026020010151815481106108af57fe5b906000526020600020906003020160405180604001604052908160008201604051806040016040529081600082018054600181600116156101000203166002900480601f0160208091040260200160405190810160405280929190818152602001828054600181600116156101000203166002900480156109715780601f1061094657610100808354040283529160200191610971565b820191906000526020600020905b81548152906001019060200180831161095457829003601f168201915b50505050508152602001600182018054600181600116156101000203166002900480601f016020809104026020016040519081016040528092919081815260200182805460018160011615610100020316600290048015610a135780601f106109e857610100808354040283529160200191610a13565b820191906000526020600020905b8154815290600101906020018083116109f657829003601f168201915b5050505050815250508152602001600282018054600181600116156101000203166002900480601f016020809104026020016040519081016040528092919081815260200182805460018160011615610100020316600290048015610ab95780601f10610a8e57610100808354040283529160200191610ab9565b820191906000526020600020905b815481529060010190602001808311610a9c57829003601f168201915b505050505081525050611060565b828281518110610ad357fe5b60200260200101819052508080600101915050610883565b5080925050505b919050565b60006060600283604051610b0b9190611b93565b90815260200160405180910390208054600181600116156101000203166002900480601f016020809104026020016040519081016040528092919081815260200182805460018160011615610100020316600290048015610bad5780601f10610b8257610100808354040283529160200191610bad565b820191906000526020600020905b815481529060010190602001808311610b9057829003601f168201915b50505050509050610bbd81610c99565b600285604051610bcd9190611b65565b602060405180830381855afa158015610bea573d6000803e3d6000fd5b5050506040513d601f19601f82011682018060405250610c0d91908101906112e4565b1415610c1d576001915050610c42565b7fffffffffffffffffffffffffffffffffffffffffffffffffffffffffffffffff9150505b92915050565b6000610c57878787878761073b565b73ffffffffffffffffffffffffffffffffffffffff16610c7683610cc4565b73ffffffffffffffffffffffffffffffffffffffff161490509695505050505050565b60006060829050600081511415610cb6576000801b915050610cbf565b60208301519150505b919050565b60006060610cd1836106fd565b90506000818051906020012090508060005260005192505050919050565b600080600185604051610d029190611b93565b9081526020016040518091039020805490501415610d42577fffffffffffffffffffffffffffffffffffffffffffffffffffffffffffffffff9050610f23565b6000600185604051610d549190611b93565b908152602001604051809103902060018087604051610d739190611b93565b9081526020016040518091039020805490500381548110610d9057fe5b90600052602060002001549050600284604051610dad9190611b65565b602060405180830381855afa158015610dca573d6000803e3d6000fd5b5050506040513d601f19601f82011682018060405250610ded91908101906112e4565b600260008381548110610dfc57fe5b9060005260206000209060030201600001600001604051610e1d9190611b7c565b602060405180830381855afa158015610e3a573d6000803e3d6000fd5b5050506040513d601f19601f82011682018060405250610e5d91908101906112e4565b1415610f1d57600284604051610e739190611b65565b602060405180830381855afa158015610e90573d6000803e3d6000fd5b5050506040513d601f19601f82011682018060405250610eb391908101906112e4565b600284604051610ec39190611b65565b602060405180830381855afa158015610ee0573d6000803e3d6000fd5b5050506040513d601f19601f82011682018060405250610f0391908101906112e4565b1415610f13576000915050610f23565b6001915050610f23565b60009150505b9392505050565b60006060829050600081511415610f45576001915050610f4b565b60009150505b919050565b610f5861110e565b610f606111ce565b60405180604001604052808681526020018581525090506040518060400160405280828152602001848152509150509392505050565b6000806000806041855114610fb1576000935050505061105a565b6020850151925060408501519150606085015160001a9050601b8160ff161015610fdc57601b810190505b601b8160ff1614158015610ff45750601c8160ff1614155b15611005576000935050505061105a565b600186828585604051600081526020016040526040516110289493929190611c8c565b6020604051602081039080840390855afa15801561104a573d6000803e3d6000fd5b5050506020604051035193505050505b92915050565b61106861110e565b6110878260000151600001518360000151602001518460200151610f50565b9050919050565b828054600181600116156101000203166002900490600052602060002090601f016020900481019282601f106110cf57805160ff19168380011785556110fd565b828001600101855582156110fd579182015b828111156110fc5782518255916020019190600101906110e1565b5b50905061110a91906111e8565b5090565b604051806040016040528061112161120d565b8152602001606081525090565b828054600181600116156101000203166002900490600052602060002090601f016020900481019282601f1061116f57805160ff191683800117855561119d565b8280016001018555821561119d579182015b8281111561119c578251825591602001919060010190611181565b5b5090506111aa91906111e8565b5090565b60405180604001604052806111c161120d565b8152602001606081525090565b604051806040016040528060608152602001606081525090565b61120a91905b808211156112065760008160009055506001016111ee565b5090565b90565b604051806040016040528060608152602001606081525090565b60008151905061123681611ef6565b92915050565b600082601f83011261124d57600080fd5b813561126061125b82611d3b565b611d0e565b9150808252602083016020830185838301111561127c57600080fd5b611287838284611e99565b50505092915050565b600082601f8301126112a157600080fd5b81356112b46112af82611d67565b611d0e565b915080825260208301602083018583830111156112d057600080fd5b6112db838284611e99565b50505092915050565b6000602082840312156112f657600080fd5b600061130484828501611227565b91505092915050565b60006020828403121561131f57600080fd5b600082013567ffffffffffffffff81111561133957600080fd5b6113458482850161123c565b91505092915050565b6000806040838503121561136157600080fd5b600083013567ffffffffffffffff81111561137b57600080fd5b6113878582860161123c565b925050602083013567ffffffffffffffff8111156113a457600080fd5b6113b085828601611290565b9150509250929050565b6000602082840312156113cc57600080fd5b600082013567ffffffffffffffff8111156113e657600080fd5b6113f284828501611290565b91505092915050565b6000806000806080858703121561141157600080fd5b600085013567ffffffffffffffff81111561142b57600080fd5b61143787828801611290565b945050602085013567ffffffffffffffff81111561145457600080fd5b61146087828801611290565b935050604085013567ffffffffffffffff81111561147d57600080fd5b61148987828801611290565b925050606085013567ffffffffffffffff8111156114a657600080fd5b6114b287828801611290565b91505092959194509250565b600080600080600060a086880312156114d657600080fd5b600086013567ffffffffffffffff8111156114f057600080fd5b6114fc88828901611290565b955050602086013567ffffffffffffffff81111561151957600080fd5b61152588828901611290565b945050604086013567ffffffffffffffff81111561154257600080fd5b61154e88828901611290565b935050606086013567ffffffffffffffff81111561156b57600080fd5b61157788828901611290565b925050608086013567ffffffffffffffff81111561159457600080fd5b6115a08882890161123c565b9150509295509295909350565b60008060008060008060c087890312156115c657600080fd5b600087013567ffffffffffffffff8111156115e057600080fd5b6115ec89828a01611290565b965050602087013567ffffffffffffffff81111561160957600080fd5b61161589828a01611290565b955050604087013567ffffffffffffffff81111561163257600080fd5b61163e89828a01611290565b945050606087013567ffffffffffffffff81111561165b57600080fd5b61166789828a01611290565b935050608087013567ffffffffffffffff81111561168457600080fd5b61169089828a0161123c565b92505060a087013567ffffffffffffffff8111156116ad57600080fd5b6116b989828a0161123c565b9150509295509295509295565b60008060008060008060008060006101208a8c0312156116e557600080fd5b60008a013567ffffffffffffffff8111156116ff57600080fd5b61170b8c828d01611290565b99505060208a013567ffffffffffffffff81111561172857600080fd5b6117348c828d01611290565b98505060408a013567ffffffffffffffff81111561175157600080fd5b61175d8c828d01611290565b97505060608a013567ffffffffffffffff81111561177a57600080fd5b6117868c828d01611290565b96505060808a013567ffffffffffffffff8111156117a357600080fd5b6117af8c828d01611290565b95505060a08a013567ffffffffffffffff8111156117cc57600080fd5b6117d88c828d01611290565b94505060c08a013567ffffffffffffffff8111156117f557600080fd5b6118018c828d01611290565b93505060e08a013567ffffffffffffffff81111561181e57600080fd5b61182a8c828d0161123c565b9250506101008a013567ffffffffffffffff81111561184857600080fd5b6118548c828d0161123c565b9150509295985092959850929598565b60006118708383611ae6565b905092915050565b61188181611e3a565b82525050565b600061189282611db8565b61189c8185611df1565b9350836020820285016118ae85611d93565b8060005b858110156118ea57848403895281516118cb8582611864565b94506118d683611de4565b925060208a019950506001810190506118b2565b50829750879550505050505092915050565b61190581611e4c565b82525050565b61191481611e58565b82525050565b61192b61192682611e58565b611edb565b82525050565b600061193c82611dc3565b6119468185611e02565b9350611956818560208601611ea8565b61195f81611ee5565b840191505092915050565b600061197582611dc3565b61197f8185611e13565b935061198f818560208601611ea8565b80840191505092915050565b6000815460018116600081146119b857600181146119dd57611a21565b607f60028304166119c98187611e13565b955060ff1983168652808601935050611a21565b600282046119eb8187611e13565b95506119f685611da3565b60005b82811015611a18578154818901526001820191506020810190506119f9565b82880195505050505b505092915050565b611a3281611e62565b82525050565b6000611a4382611dd9565b611a4d8185611e2f565b9350611a5d818560208601611ea8565b80840191505092915050565b6000611a7482611dce565b611a7e8185611e1e565b9350611a8e818560208601611ea8565b611a9781611ee5565b840191505092915050565b60006040830160008301518482036000860152611abf8282611a69565b91505060208301518482036020860152611ad98282611a69565b9150508091505092915050565b60006040830160008301518482036000860152611b038282611aa2565b91505060208301518482036020860152611b1d8282611a69565b9150508091505092915050565b611b3381611e8c565b82525050565b6000611b45828561191a565b602082019150611b55828461191a565b6020820191508190509392505050565b6000611b71828461196a565b915081905092915050565b6000611b88828461199b565b915081905092915050565b6000611b9f8284611a38565b915081905092915050565b6000611bb68286611a38565b9150611bc28285611a38565b9150611bce8284611a38565b9150819050949350505050565b6000611be78287611a38565b9150611bf38286611a38565b9150611bff8285611a38565b9150611c0b8284611a38565b915081905095945050505050565b6000602082019050611c2e6000830184611878565b92915050565b60006020820190508181036000830152611c4e8184611887565b905092915050565b6000602082019050611c6b60008301846118fc565b92915050565b6000602082019050611c86600083018461190b565b92915050565b6000608082019050611ca1600083018761190b565b611cae6020830186611b2a565b611cbb604083018561190b565b611cc8606083018461190b565b95945050505050565b60006020820190508181036000830152611ceb8184611931565b905092915050565b6000602082019050611d086000830184611a29565b92915050565b6000604051905081810181811067ffffffffffffffff82111715611d3157600080fd5b8060405250919050565b600067ffffffffffffffff821115611d5257600080fd5b601f19601f8301169050602081019050919050565b600067ffffffffffffffff821115611d7e57600080fd5b601f19601f8301169050602081019050919050565b6000819050602082019050919050565b60008190508160005260206000209050919050565b600081519050919050565b600081519050919050565b600081519050919050565b600081519050919050565b6000602082019050919050565b600082825260208201905092915050565b600082825260208201905092915050565b600081905092915050565b600082825260208201905092915050565b600081905092915050565b6000611e4582611e6c565b9050919050565b60008115159050919050565b6000819050919050565b6000819050919050565b600073ffffffffffffffffffffffffffffffffffffffff82169050919050565b600060ff82169050919050565b82818337600083830152505050565b60005b83811015611ec6578082015181840152602081019050611eab565b83811115611ed5576000848401525b50505050565b6000819050919050565b6000601f19601f8301169050919050565b611eff81611e58565b8114611f0a57600080fd5b5056fea365627a7a72315820b567aadaf5cefdf2e26685b1289533f734df80ad7b5adfba448e467a2d0ed3966c6578706572696d656e74616cf564736f6c63430005100040",
  "source": "pragma solidity >= 0.5.0 <= 0.7.4;\r\npragma experimental ABIEncoderV2;\r\n\r\ncontract AnchorContract {\r\n\r\n    // error codes\r\n    uint constant statusOK = 200;\r\n    uint constant statusHashLinkOutOfSync = 100;\r\n    uint constant statusControlStringEmptyOnNewAnchor = 101;\r\n    uint constant statusHashOfPublicKeyDoesntMatchControlString = 102;\r\n    uint constant statusSignatureCheckFailed = 103;\r\n\r\n    event InvokeStatus(uint indexed statusCode);\r\n\r\n    struct AnchorHash {\r\n        string newHashLinkSSI;\r\n        string lastHashLinkSSI;\r\n    }\r\n\r\n    struct AnchorValue {\r\n        AnchorHash hash;\r\n        string ZKPValue;\r\n    }\r\n\r\n    // store all anchors\r\n    AnchorValue[] anchorStorage;\r\n    //keep a mapping between anchor(keySSI) and it's versions\r\n    mapping (string => uint[]) anchorVersions;\r\n\r\n    //mapping between anchorID and controlString.\r\n    mapping (string => string) anchorControlStrings;\r\n\r\n\r\n\r\n    constructor() public {\r\n\r\n\r\n    }\r\n\r\n\r\n    // public function\r\n    function addAnchor(string memory anchorID, string memory keySSIType, string memory controlString,\r\n        string memory vn, string memory newHashLinkSSI, string memory ZKPValue, string memory lastHashLinkSSI,\r\n        bytes memory signature, bytes memory publicKey) public {\r\n            //todo : implementa validation process\r\n            //todo : add error management\r\n            //todo : add new mapping between anchorID and controlString\r\n            //todo : use controlString if is already defined for anchorID and ignore the parameter\r\n            int validateAnchorContinuityResult = validateAnchorContinuity(anchorID, lastHashLinkSSI, newHashLinkSSI);\r\n            if (validateAnchorContinuityResult == 0)\r\n            {\r\n                //hash link are out of sync\r\n                emit InvokeStatus(statusHashLinkOutOfSync);\r\n                return;\r\n            }\r\n\r\n            if (validateAnchorContinuityResult == -1)\r\n            {\r\n                //anchor is new and we must check controlString\r\n                if (isStringEmpty(controlString))\r\n                {\r\n                    emit InvokeStatus(statusControlStringEmptyOnNewAnchor);\r\n                    return;\r\n                }\r\n                // add controlString to the mapping\r\n                anchorControlStrings[anchorID] = controlString;\r\n            }\r\n\r\n            //validate hash of the publicKey\r\n            //todo : enable\r\n            //if (validatePublicKeyHash(publicKey,anchorID) == -1)\r\n            //{\r\n                //emit InvokeStatus(statusHashOfPublicKeyDoesntMatchControlString);\r\n                //return;\r\n            //}\r\n\r\n            //validate signature\r\n            //todo : enable\r\n            //if (!validateSignature(anchorID, newHashLinkSSI,ZKPValue,lastHashLinkSSI, signature,publicKey))\r\n            //{\r\n                //emit InvokeStatus(statusSignatureCheckFailed);\r\n                //return;\r\n            //}\r\n\r\n            //create new anchor value\r\n            AnchorValue memory anchorValue = buildAnchorValue(newHashLinkSSI,lastHashLinkSSI,ZKPValue);\r\n            anchorStorage.push(anchorValue);\r\n            uint versionIndex = anchorStorage.length - 1;\r\n            //update number of versions available for that anchor\r\n            anchorVersions[anchorID].push(versionIndex);\r\n\r\n            //all done, invoke ok status\r\n            emit InvokeStatus(statusOK);\r\n    }\r\n\r\n    function isStringEmpty(string memory data) private pure returns (bool)\r\n    {\r\n        bytes memory bdata = bytes(data);\r\n        if (bdata.length == 0)\r\n        {\r\n            return true;\r\n        }\r\n        return false;\r\n    }\r\n\r\n\r\n\r\n    function stringToBytes32(string memory source) public pure returns (bytes32 result) {\r\n        bytes memory tempEmptyStringTest = bytes(source);\r\n        if (tempEmptyStringTest.length == 0) {\r\n            return 0x0;\r\n        }\r\n\r\n        assembly {\r\n            result := mload(add(source, 32))\r\n        }\r\n    }\r\n\r\n    function validatePublicKeyAndControlString(bytes memory publicKey,string memory controlString) public returns (bool)\r\n    {\r\n        return (sha256(publicKey) == stringToBytes32(controlString));\r\n    }\r\n    function v2(string memory controlString) public returns (bytes32)\r\n    {\r\n        return stringToBytes32(controlString);\r\n    }\r\n    function v1(bytes memory publicKey) public returns (bytes32)\r\n    {\r\n        return sha256(publicKey);\r\n    }\r\n\r\n    function validatePublicKeyHash(bytes memory publicKey, string memory anchorID) public returns (int)\r\n    {\r\n        string memory controlString =  anchorControlStrings[anchorID];\r\n        if (sha256(publicKey) == stringToBytes32(controlString))\r\n        {\r\n            //we have match. All is ok.\r\n            return 1;\r\n        }\r\n\r\n        //validation failed\r\n        return -1;\r\n    }\r\n\r\n    function recover(bytes32 hash, bytes memory signature) private pure returns (address)\r\n    {\r\n        bytes32 r;\r\n        bytes32 s;\r\n        uint8 v;\r\n\r\n        // Check the signature length\r\n        if (signature.length != 65) {\r\n            return (address(0));\r\n        }\r\n\r\n        // Divide the signature in r, s and v variables\r\n        // ecrecover takes the signature parameters, and the only way to get them\r\n        // currently is to use assembly.\r\n        // solium-disable-next-line security/no-inline-assembly\r\n        assembly {\r\n            r := mload(add(signature, 32))\r\n            s := mload(add(signature, 64))\r\n            v := byte(0, mload(add(signature, 96)))\r\n        }\r\n\r\n        // Version of signature should be 27 or 28, but 0 and 1 are also possible versions\r\n        if (v < 27) {\r\n            v += 27;\r\n        }\r\n\r\n        // If the version is correct return the signer address\r\n        if (v != 27 && v != 28) {\r\n            return (address(0));\r\n        } else {\r\n            // solium-disable-next-line arg-overflow\r\n            return ecrecover(hash, v, r, s);\r\n        }\r\n    }\r\n\r\n\r\n    //this is a verification function exposed only to check the verification signature process\r\n    //todo : for production change this function to private\r\n    function validateSignature(string memory anchorID,string memory newHashLinkSSI,string memory ZKPValue,\r\n        string memory lastHashLinkSSI, bytes memory signature, bytes memory publicKey) public returns (bool)\r\n    {\r\n        return calculateAddress(publicKey) == getAddressFromHashAndSig(anchorID, newHashLinkSSI, ZKPValue, lastHashLinkSSI, signature);\r\n    }\r\n\r\n    //this is a verification function exposed only to check the verification signature process\r\n    //todo : for production change this function to private\r\n    function calculateAddress(bytes memory pub) public pure returns (address addr) {\r\n        // address is 65 bytes\r\n        // lose the first byte 0x04, use only the 64 bytes\r\n        // sha256 (64 bytes)\r\n        // get the 20 bytes\r\n        bytes memory pubk = get64(pub);\r\n\r\n        bytes32 hash = keccak256(pubk);\r\n        assembly {\r\n            mstore(0, hash)\r\n            addr := mload(0)\r\n        }\r\n    }\r\n\r\n    //this is a verification function exposed only to check the verification signature process\r\n    //todo : for production change this function to private\r\n    function get64(bytes memory pub) public pure returns (bytes memory)\r\n    {\r\n        //format 0x04bytes32bytes32\r\n        bytes32 first32;\r\n        bytes32 second32;\r\n        assembly {\r\n            //intentional 0x04bytes32 -> bytes32. We drop 0x04\r\n            first32 := mload(add(pub, 33))\r\n            second32 := mload(add(pub, 65))\r\n        }\r\n\r\n        return abi.encodePacked(first32,second32);\r\n    }\r\n\r\n    //this is a verification function exposed only to check the verification signature process\r\n    //todo : for production change this function to private\r\n    function getAddressFromHashAndSig(string memory anchorID,string memory newHashLinkSSI,string memory ZKPValue,\r\n        string memory lastHashLinkSSI, bytes memory signature) public returns (address)\r\n    {\r\n        //return the public key derivation\r\n        return recover(getHashToBeChecked(anchorID,newHashLinkSSI,ZKPValue,lastHashLinkSSI), signature);\r\n    }\r\n\r\n    //this is a verification function exposed only to check the verification signature process\r\n    //todo : for production change this function to private\r\n    function getHashToBeChecked(string memory anchorID,string memory newHashLinkSSI,string memory ZKPValue,\r\n        string memory lastHashLinkSSI) public view returns (bytes32)\r\n    {\r\n        //use abi.encodePacked to not pad the inputs\r\n        if (anchorVersions[anchorID].length == 0)\r\n        {\r\n            return sha256(abi.encodePacked(anchorID,newHashLinkSSI,ZKPValue));\r\n        }\r\n            return sha256(abi.encodePacked(anchorID,newHashLinkSSI,ZKPValue,lastHashLinkSSI));\r\n    }\r\n\r\n    function validateAnchorContinuity(string memory anchorID, string memory lastHashLinkSSI, string memory newHashLinkSSI) private returns (int)\r\n    {\r\n        if (anchorVersions[anchorID].length == 0)\r\n        {\r\n            //first anchor to be added\r\n            return -1;\r\n        }\r\n        uint index = anchorVersions[anchorID][anchorVersions[anchorID].length-1];\r\n\r\n        //can import StringUtils contract or compare hashes\r\n        //hash compare seems faster\r\n        if (sha256(bytes(anchorStorage[index].hash.newHashLinkSSI)) == sha256(bytes(lastHashLinkSSI)))\r\n        {\r\n            //ensure we dont get double hashLinkSSI\r\n            if (sha256(bytes(newHashLinkSSI)) == sha256(bytes(lastHashLinkSSI)))\r\n            {\r\n                //raise out of sync. the hashlinks should be different, except 1st anchor\r\n                return 0;\r\n            }\r\n            //last hash link from contract is a match with the one passed\r\n            return 1;\r\n        }\r\n        //hash link is out of sync. the last hash link stored doesnt match with the last hash link passed\r\n        return 0;\r\n    }\r\n\r\n    function buildAnchorValue(string memory newHashLinkSSI, string memory lastHashLinkSSI, string memory ZKPValue) private pure returns (AnchorValue memory){\r\n        AnchorHash memory anchorHash = AnchorHash(newHashLinkSSI, lastHashLinkSSI);\r\n        return AnchorValue(anchorHash, ZKPValue);\r\n    }\r\n\r\n    function copyAnchorValue(AnchorValue memory anchorValue) private pure returns (AnchorValue memory){\r\n        return buildAnchorValue(anchorValue.hash.newHashLinkSSI, anchorValue.hash.lastHashLinkSSI, anchorValue.ZKPValue);\r\n    }\r\n\r\n    // public function\r\n    function getAnchorVersions(string memory anchor) public view returns (AnchorValue[] memory) {\r\n        if (anchorVersions[anchor].length == 0)\r\n        {\r\n            return new AnchorValue[](0);\r\n        }\r\n        uint[] memory indexList = anchorVersions[anchor];\r\n        AnchorValue[] memory result = new AnchorValue[] (indexList.length);\r\n        for (uint i=0;i<indexList.length;i++){\r\n            result[i] = copyAnchorValue(anchorStorage[indexList[i]]);\r\n        }\r\n\r\n        return result;\r\n\r\n    }\r\n\r\n}",
  "sourcePath": "D:/Pharma/WD/epi-workspace/ethereum-anchoring/SmartContract/contracts/AnchorContract.sol",
  "compiler": {
    "name": "solc",
    "version": "0.5.16+commit.9c3226ce.Emscripten.clang"
  },
  "schemaVersion": "3.2.5",
  "updatedAt": "2020-11-20T07:41:39.838Z",
  "networkType": "ethereum",
  "devdoc": {
    "methods": {}
  },
  "userdoc": {
    "methods": {}
  }
}