{
  "contractName": "AnchorContract",
  "abi": [
    {
      "inputs": [],
      "payable": false,
      "stateMutability": "nonpayable",
      "type": "constructor"
    },
    {
      "anonymous": false,
      "inputs": [
        {
          "indexed": true,
          "internalType": "uint256",
          "name": "statusCode",
          "type": "uint256"
        }
      ],
      "name": "InvokeStatus",
      "type": "event"
    },
    {
      "constant": false,
      "inputs": [
        {
          "internalType": "string",
          "name": "anchorID",
          "type": "string"
        },
        {
          "internalType": "string",
          "name": "keySSIType",
          "type": "string"
        },
        {
          "internalType": "bytes32",
          "name": "controlString",
          "type": "bytes32"
        },
        {
          "internalType": "string",
          "name": "vn",
          "type": "string"
        },
        {
          "internalType": "string",
          "name": "newHashLinkSSI",
          "type": "string"
        },
        {
          "internalType": "string",
          "name": "ZKPValue",
          "type": "string"
        },
        {
          "internalType": "string",
          "name": "lastHashLinkSSI",
          "type": "string"
        },
        {
          "internalType": "bytes",
          "name": "signature",
          "type": "bytes"
        },
        {
          "internalType": "bytes",
          "name": "publicKey",
          "type": "bytes"
        }
      ],
      "name": "addAnchor",
      "outputs": [],
      "payable": false,
      "stateMutability": "nonpayable",
      "type": "function"
    },
    {
      "constant": false,
      "inputs": [
        {
          "internalType": "bytes",
          "name": "publicKey",
          "type": "bytes"
        },
        {
          "internalType": "bytes32",
          "name": "controlString",
          "type": "bytes32"
        }
      ],
      "name": "validatePublicKeyAndControlString",
      "outputs": [
        {
          "internalType": "bool",
          "name": "",
          "type": "bool"
        }
      ],
      "payable": false,
      "stateMutability": "nonpayable",
      "type": "function"
    },
    {
      "constant": false,
      "inputs": [
        {
          "internalType": "bytes",
          "name": "publicKey",
          "type": "bytes"
        },
        {
          "internalType": "string",
          "name": "anchorID",
          "type": "string"
        }
      ],
      "name": "validatePublicKeyHash",
      "outputs": [
        {
          "internalType": "int256",
          "name": "",
          "type": "int256"
        }
      ],
      "payable": false,
      "stateMutability": "nonpayable",
      "type": "function"
    },
    {
      "constant": false,
      "inputs": [
        {
          "internalType": "string",
          "name": "anchorID",
          "type": "string"
        },
        {
          "internalType": "string",
          "name": "newHashLinkSSI",
          "type": "string"
        },
        {
          "internalType": "string",
          "name": "ZKPValue",
          "type": "string"
        },
        {
          "internalType": "string",
          "name": "lastHashLinkSSI",
          "type": "string"
        },
        {
          "internalType": "bytes",
          "name": "signature",
          "type": "bytes"
        },
        {
          "internalType": "bytes",
          "name": "publicKey",
          "type": "bytes"
        }
      ],
      "name": "validateSignature",
      "outputs": [
        {
          "internalType": "bool",
          "name": "",
          "type": "bool"
        }
      ],
      "payable": false,
      "stateMutability": "nonpayable",
      "type": "function"
    },
    {
      "constant": true,
      "inputs": [
        {
          "internalType": "bytes",
          "name": "pub",
          "type": "bytes"
        }
      ],
      "name": "calculateAddress",
      "outputs": [
        {
          "internalType": "address",
          "name": "addr",
          "type": "address"
        }
      ],
      "payable": false,
      "stateMutability": "pure",
      "type": "function"
    },
    {
      "constant": true,
      "inputs": [
        {
          "internalType": "bytes",
          "name": "pub",
          "type": "bytes"
        }
      ],
      "name": "get64",
      "outputs": [
        {
          "internalType": "bytes",
          "name": "",
          "type": "bytes"
        }
      ],
      "payable": false,
      "stateMutability": "pure",
      "type": "function"
    },
    {
      "constant": false,
      "inputs": [
        {
          "internalType": "string",
          "name": "anchorID",
          "type": "string"
        },
        {
          "internalType": "string",
          "name": "newHashLinkSSI",
          "type": "string"
        },
        {
          "internalType": "string",
          "name": "ZKPValue",
          "type": "string"
        },
        {
          "internalType": "string",
          "name": "lastHashLinkSSI",
          "type": "string"
        },
        {
          "internalType": "bytes",
          "name": "signature",
          "type": "bytes"
        }
      ],
      "name": "getAddressFromHashAndSig",
      "outputs": [
        {
          "internalType": "address",
          "name": "",
          "type": "address"
        }
      ],
      "payable": false,
      "stateMutability": "nonpayable",
      "type": "function"
    },
    {
      "constant": true,
      "inputs": [
        {
          "internalType": "string",
          "name": "anchorID",
          "type": "string"
        },
        {
          "internalType": "string",
          "name": "newHashLinkSSI",
          "type": "string"
        },
        {
          "internalType": "string",
          "name": "ZKPValue",
          "type": "string"
        },
        {
          "internalType": "string",
          "name": "lastHashLinkSSI",
          "type": "string"
        }
      ],
      "name": "getHashToBeChecked",
      "outputs": [
        {
          "internalType": "bytes32",
          "name": "",
          "type": "bytes32"
        }
      ],
      "payable": false,
      "stateMutability": "view",
      "type": "function"
    },
    {
      "constant": true,
      "inputs": [
        {
          "internalType": "string",
          "name": "anchor",
          "type": "string"
        }
      ],
      "name": "getAnchorVersions",
      "outputs": [
        {
          "components": [
            {
              "components": [
                {
                  "internalType": "string",
                  "name": "newHashLinkSSI",
                  "type": "string"
                },
                {
                  "internalType": "string",
                  "name": "lastHashLinkSSI",
                  "type": "string"
                }
              ],
              "internalType": "struct AnchorContract.AnchorHash",
              "name": "hash",
              "type": "tuple"
            },
            {
              "internalType": "string",
              "name": "ZKPValue",
              "type": "string"
            }
          ],
          "internalType": "struct AnchorContract.AnchorValue[]",
          "name": "",
          "type": "tuple[]"
        }
      ],
      "payable": false,
      "stateMutability": "view",
      "type": "function"
    },
    {
      "constant": true,
      "inputs": [
        {
          "internalType": "bytes32",
          "name": "data",
          "type": "bytes32"
        }
      ],
      "name": "isEmptyBytes32",
      "outputs": [
        {
          "internalType": "bool",
          "name": "",
          "type": "bool"
        }
      ],
      "payable": false,
      "stateMutability": "pure",
      "type": "function"
    }
  ],
  "bytecode": "0x608060405234801561001057600080fd5b50611d58806100206000396000f3fe608060405234801561001057600080fd5b506004361061009e5760003560e01c8063ab46b02411610066578063ab46b02414610193578063b9690fe3146101c3578063cdab80e3146101f3578063ce43b1101461020f578063e8a4c04e1461023f5761009e565b80632f9b595d146100a35780634222fd23146100d357806380126744146101035780638a74bf991461013357806397653cb714610163575b600080fd5b6100bd60048036036100b891908101906113a1565b61026f565b6040516100ca9190611a79565b60405180910390f35b6100ed60048036036100e89190810190611087565b610394565b6040516100fa9190611a5e565b60405180910390f35b61011d6004803603610118919081019061111a565b6103d5565b60405161012a9190611a5e565b60405180910390f35b61014d600480360361014891908101906110d9565b610431565b60405161015a9190611ad9565b60405180910390f35b61017d60048036036101789190810190611464565b61046f565b60405161018a9190611a21565b60405180910390f35b6101ad60048036036101a891908101906111da565b610491565b6040516101ba9190611a3c565b60405180910390f35b6101dd60048036036101d8919081019061116e565b61082b565b6040516101ea9190611afb565b60405180910390f35b61020d6004803603610208919081019061121b565b610893565b005b61022960048036036102249190810190611553565b610aa7565b6040516102369190611a5e565b60405180910390f35b610259600480360361025491908101906110d9565b610af8565b6040516102669190611a21565b60405180910390f35b600080600186604051610282919061199b565b90815260200160405180910390208054905014156103145760028585856040516020016102b1939291906119b2565b6040516020818303038152906040526040516102cd919061196d565b602060405180830381855afa1580156102ea573d6000803e3d6000fd5b5050506040513d601f19601f8201168201806040525061030d91908101906110b0565b905061038c565b60028585858560405160200161032d94939291906119e3565b604051602081830303815290604052604051610349919061196d565b602060405180830381855afa158015610366573d6000803e3d6000fd5b5050506040513d601f19601f8201168201806040525061038991908101906110b0565b90505b949350505050565b60008060f81b826000602081106103a757fe5b1a60f81b7effffffffffffffffffffffffffffffffffffffffffffffffffffffffffffff1916149050919050565b6000816002846040516103e8919061196d565b602060405180830381855afa158015610405573d6000803e3d6000fd5b5050506040513d601f19601f8201168201806040525061042891908101906110b0565b14905092915050565b606060008060218401519150604184015190508181604051602001610457929190611941565b60405160208183030381529060405292505050919050565b60006104866104808787878761026f565b83610b23565b905095945050505050565b606060006001836040516104a5919061199b565b90815260200160405180910390208054905014156105005760006040519080825280602002602001820160405280156104f857816020015b6104e5610e9c565b8152602001906001900390816104dd5790505b509050610826565b6060600183604051610512919061199b565b908152602001604051809103902080548060200260200160405190810160405280929190818152602001828054801561056a57602002820191906000526020600020905b815481526020019060010190808311610556575b50505050509050606081516040519080825280602002602001820160405280156105ae57816020015b61059b610e9c565b8152602001906001900390816105935790505b50905060008090505b825181101561081f576107fb60008483815181106105d157fe5b6020026020010151815481106105e357fe5b906000526020600020906003020160405180604001604052908160008201604051806040016040529081600082018054600181600116156101000203166002900480601f0160208091040260200160405190810160405280929190818152602001828054600181600116156101000203166002900480156106a55780601f1061067a576101008083540402835291602001916106a5565b820191906000526020600020905b81548152906001019060200180831161068857829003601f168201915b50505050508152602001600182018054600181600116156101000203166002900480601f0160208091040260200160405190810160405280929190818152602001828054600181600116156101000203166002900480156107475780601f1061071c57610100808354040283529160200191610747565b820191906000526020600020905b81548152906001019060200180831161072a57829003601f168201915b5050505050815250508152602001600282018054600181600116156101000203166002900480601f0160208091040260200160405190810160405280929190818152602001828054600181600116156101000203166002900480156107ed5780601f106107c2576101008083540402835291602001916107ed565b820191906000526020600020905b8154815290600101906020018083116107d057829003601f168201915b505050505081525050610bed565b82828151811061080757fe5b602002602001018190525080806001019150506105b7565b5080925050505b919050565b60008060028360405161083e919061199b565b908152602001604051809103902054905061085984826103d5565b1561086857600191505061088d565b7fffffffffffffffffffffffffffffffffffffffffffffffffffffffffffffffff9150505b92915050565b60006108a08a8588610c1b565b905060008114156108df5760647f4946ccdaf82fd5a93c40e96bfc3e4486f2b1d95879aecd4b186cd3e2adb3f4b960405160405180910390a250610a9c565b7fffffffffffffffffffffffffffffffffffffffffffffffffffffffffffffffff81141561096d5761091088610394565b156109495760657f4946ccdaf82fd5a93c40e96bfc3e4486f2b1d95879aecd4b186cd3e2adb3f4b960405160405180910390a250610a9c565b8760028b60405161095a919061199b565b9081526020016040518091039020819055505b610975610ebc565b610980878688610e56565b90506000819080600181540180825580915050906001820390600052602060002090600302016000909192909190915060008201518160000160008201518160000190805190602001906109d5929190610edc565b5060208201518160010190805190602001906109f2929190610edc565b5050506020820151816002019080519060200190610a11929190610edc565b505050506000600160008054905003905060018c604051610a32919061199b565b908152602001604051809103902081908060018154018082558091505090600182039060005260206000200160009091929091909150555060c87f4946ccdaf82fd5a93c40e96bfc3e4486f2b1d95879aecd4b186cd3e2adb3f4b960405160405180910390a25050505b505050505050505050565b6000610ab6878787878761046f565b73ffffffffffffffffffffffffffffffffffffffff16610ad583610af8565b73ffffffffffffffffffffffffffffffffffffffff161490509695505050505050565b60006060610b0583610431565b90506000818051906020012090508060005260005192505050919050565b6000806000806041855114610b3e5760009350505050610be7565b6020850151925060408501519150606085015160001a9050601b8160ff161015610b6957601b810190505b601b8160ff1614158015610b815750601c8160ff1614155b15610b925760009350505050610be7565b60018682858560405160008152602001604052604051610bb59493929190611a94565b6020604051602081039080840390855afa158015610bd7573d6000803e3d6000fd5b5050506020604051035193505050505b92915050565b610bf5610ebc565b610c148260000151600001518360000151602001518460200151610e56565b9050919050565b600080600185604051610c2e919061199b565b9081526020016040518091039020805490501415610c6e577fffffffffffffffffffffffffffffffffffffffffffffffffffffffffffffffff9050610e4f565b6000600185604051610c80919061199b565b908152602001604051809103902060018087604051610c9f919061199b565b9081526020016040518091039020805490500381548110610cbc57fe5b90600052602060002001549050600284604051610cd9919061196d565b602060405180830381855afa158015610cf6573d6000803e3d6000fd5b5050506040513d601f19601f82011682018060405250610d1991908101906110b0565b600260008381548110610d2857fe5b9060005260206000209060030201600001600001604051610d499190611984565b602060405180830381855afa158015610d66573d6000803e3d6000fd5b5050506040513d601f19601f82011682018060405250610d8991908101906110b0565b1415610e4957600284604051610d9f919061196d565b602060405180830381855afa158015610dbc573d6000803e3d6000fd5b5050506040513d601f19601f82011682018060405250610ddf91908101906110b0565b600284604051610def919061196d565b602060405180830381855afa158015610e0c573d6000803e3d6000fd5b5050506040513d601f19601f82011682018060405250610e2f91908101906110b0565b1415610e3f576000915050610e4f565b6001915050610e4f565b60009150505b9392505050565b610e5e610ebc565b610e66610f5c565b60405180604001604052808681526020018581525090506040518060400160405280828152602001848152509150509392505050565b6040518060400160405280610eaf610f76565b8152602001606081525090565b6040518060400160405280610ecf610f76565b8152602001606081525090565b828054600181600116156101000203166002900490600052602060002090601f016020900481019282601f10610f1d57805160ff1916838001178555610f4b565b82800160010185558215610f4b579182015b82811115610f4a578251825591602001919060010190610f2f565b5b509050610f589190610f90565b5090565b604051806040016040528060608152602001606081525090565b604051806040016040528060608152602001606081525090565b610fb291905b80821115610fae576000816000905550600101610f96565b5090565b90565b600081359050610fc481611cfe565b92915050565b600081519050610fd981611cfe565b92915050565b600082601f830112610ff057600080fd5b8135611003610ffe82611b43565b611b16565b9150808252602083016020830185838301111561101f57600080fd5b61102a838284611ca1565b50505092915050565b600082601f83011261104457600080fd5b813561105761105282611b6f565b611b16565b9150808252602083016020830185838301111561107357600080fd5b61107e838284611ca1565b50505092915050565b60006020828403121561109957600080fd5b60006110a784828501610fb5565b91505092915050565b6000602082840312156110c257600080fd5b60006110d084828501610fca565b91505092915050565b6000602082840312156110eb57600080fd5b600082013567ffffffffffffffff81111561110557600080fd5b61111184828501610fdf565b91505092915050565b6000806040838503121561112d57600080fd5b600083013567ffffffffffffffff81111561114757600080fd5b61115385828601610fdf565b925050602061116485828601610fb5565b9150509250929050565b6000806040838503121561118157600080fd5b600083013567ffffffffffffffff81111561119b57600080fd5b6111a785828601610fdf565b925050602083013567ffffffffffffffff8111156111c457600080fd5b6111d085828601611033565b9150509250929050565b6000602082840312156111ec57600080fd5b600082013567ffffffffffffffff81111561120657600080fd5b61121284828501611033565b91505092915050565b60008060008060008060008060006101208a8c03121561123a57600080fd5b60008a013567ffffffffffffffff81111561125457600080fd5b6112608c828d01611033565b99505060208a013567ffffffffffffffff81111561127d57600080fd5b6112898c828d01611033565b985050604061129a8c828d01610fb5565b97505060608a013567ffffffffffffffff8111156112b757600080fd5b6112c38c828d01611033565b96505060808a013567ffffffffffffffff8111156112e057600080fd5b6112ec8c828d01611033565b95505060a08a013567ffffffffffffffff81111561130957600080fd5b6113158c828d01611033565b94505060c08a013567ffffffffffffffff81111561133257600080fd5b61133e8c828d01611033565b93505060e08a013567ffffffffffffffff81111561135b57600080fd5b6113678c828d01610fdf565b9250506101008a013567ffffffffffffffff81111561138557600080fd5b6113918c828d01610fdf565b9150509295985092959850929598565b600080600080608085870312156113b757600080fd5b600085013567ffffffffffffffff8111156113d157600080fd5b6113dd87828801611033565b945050602085013567ffffffffffffffff8111156113fa57600080fd5b61140687828801611033565b935050604085013567ffffffffffffffff81111561142357600080fd5b61142f87828801611033565b925050606085013567ffffffffffffffff81111561144c57600080fd5b61145887828801611033565b91505092959194509250565b600080600080600060a0868803121561147c57600080fd5b600086013567ffffffffffffffff81111561149657600080fd5b6114a288828901611033565b955050602086013567ffffffffffffffff8111156114bf57600080fd5b6114cb88828901611033565b945050604086013567ffffffffffffffff8111156114e857600080fd5b6114f488828901611033565b935050606086013567ffffffffffffffff81111561151157600080fd5b61151d88828901611033565b925050608086013567ffffffffffffffff81111561153a57600080fd5b61154688828901610fdf565b9150509295509295909350565b60008060008060008060c0878903121561156c57600080fd5b600087013567ffffffffffffffff81111561158657600080fd5b61159289828a01611033565b965050602087013567ffffffffffffffff8111156115af57600080fd5b6115bb89828a01611033565b955050604087013567ffffffffffffffff8111156115d857600080fd5b6115e489828a01611033565b945050606087013567ffffffffffffffff81111561160157600080fd5b61160d89828a01611033565b935050608087013567ffffffffffffffff81111561162a57600080fd5b61163689828a01610fdf565b92505060a087013567ffffffffffffffff81111561165357600080fd5b61165f89828a01610fdf565b9150509295509295509295565b600061167883836118ee565b905092915050565b61168981611c42565b82525050565b600061169a82611bc0565b6116a48185611bf9565b9350836020820285016116b685611b9b565b8060005b858110156116f257848403895281516116d3858261166c565b94506116de83611bec565b925060208a019950506001810190506116ba565b50829750879550505050505092915050565b61170d81611c54565b82525050565b61171c81611c60565b82525050565b61173361172e82611c60565b611ce3565b82525050565b600061174482611bcb565b61174e8185611c0a565b935061175e818560208601611cb0565b61176781611ced565b840191505092915050565b600061177d82611bcb565b6117878185611c1b565b9350611797818560208601611cb0565b80840191505092915050565b6000815460018116600081146117c057600181146117e557611829565b607f60028304166117d18187611c1b565b955060ff1983168652808601935050611829565b600282046117f38187611c1b565b95506117fe85611bab565b60005b8281101561182057815481890152600182019150602081019050611801565b82880195505050505b505092915050565b61183a81611c6a565b82525050565b600061184b82611be1565b6118558185611c37565b9350611865818560208601611cb0565b80840191505092915050565b600061187c82611bd6565b6118868185611c26565b9350611896818560208601611cb0565b61189f81611ced565b840191505092915050565b600060408301600083015184820360008601526118c78282611871565b915050602083015184820360208601526118e18282611871565b9150508091505092915050565b6000604083016000830151848203600086015261190b82826118aa565b915050602083015184820360208601526119258282611871565b9150508091505092915050565b61193b81611c94565b82525050565b600061194d8285611722565b60208201915061195d8284611722565b6020820191508190509392505050565b60006119798284611772565b915081905092915050565b600061199082846117a3565b915081905092915050565b60006119a78284611840565b915081905092915050565b60006119be8286611840565b91506119ca8285611840565b91506119d68284611840565b9150819050949350505050565b60006119ef8287611840565b91506119fb8286611840565b9150611a078285611840565b9150611a138284611840565b915081905095945050505050565b6000602082019050611a366000830184611680565b92915050565b60006020820190508181036000830152611a56818461168f565b905092915050565b6000602082019050611a736000830184611704565b92915050565b6000602082019050611a8e6000830184611713565b92915050565b6000608082019050611aa96000830187611713565b611ab66020830186611932565b611ac36040830185611713565b611ad06060830184611713565b95945050505050565b60006020820190508181036000830152611af38184611739565b905092915050565b6000602082019050611b106000830184611831565b92915050565b6000604051905081810181811067ffffffffffffffff82111715611b3957600080fd5b8060405250919050565b600067ffffffffffffffff821115611b5a57600080fd5b601f19601f8301169050602081019050919050565b600067ffffffffffffffff821115611b8657600080fd5b601f19601f8301169050602081019050919050565b6000819050602082019050919050565b60008190508160005260206000209050919050565b600081519050919050565b600081519050919050565b600081519050919050565b600081519050919050565b6000602082019050919050565b600082825260208201905092915050565b600082825260208201905092915050565b600081905092915050565b600082825260208201905092915050565b600081905092915050565b6000611c4d82611c74565b9050919050565b60008115159050919050565b6000819050919050565b6000819050919050565b600073ffffffffffffffffffffffffffffffffffffffff82169050919050565b600060ff82169050919050565b82818337600083830152505050565b60005b83811015611cce578082015181840152602081019050611cb3565b83811115611cdd576000848401525b50505050565b6000819050919050565b6000601f19601f8301169050919050565b611d0781611c60565b8114611d1257600080fd5b5056fea365627a7a72315820c60b89ea3fdecfecaef62cc0d3a38dbd0648daa2ddff0665664c7c61c1278d1d6c6578706572696d656e74616cf564736f6c63430005100040",
  "source": "pragma solidity >= 0.5.0 <= 0.7.4;\r\npragma experimental ABIEncoderV2;\r\n\r\ncontract AnchorContract {\r\n\r\n    // error codes\r\n    uint constant statusOK = 200;\r\n    uint constant statusHashLinkOutOfSync = 100;\r\n    uint constant statusControlStringEmptyOnNewAnchor = 101;\r\n    uint constant statusHashOfPublicKeyDoesntMatchControlString = 102;\r\n    uint constant statusSignatureCheckFailed = 103;\r\n\r\n    event InvokeStatus(uint indexed statusCode);\r\n\r\n    struct AnchorHash {\r\n        string newHashLinkSSI;\r\n        string lastHashLinkSSI;\r\n    }\r\n\r\n    struct AnchorValue {\r\n        AnchorHash hash;\r\n        string ZKPValue;\r\n    }\r\n\r\n    // store all anchors\r\n    AnchorValue[] anchorStorage;\r\n    //keep a mapping between anchor(keySSI) and it's versions\r\n    mapping (string => uint[]) anchorVersions;\r\n\r\n    //mapping between anchorID and controlString.\r\n    mapping (string => bytes32) anchorControlStrings;\r\n\r\n\r\n\r\n    constructor() public {\r\n\r\n\r\n    }\r\n\r\n\r\n    // public function\r\n    function addAnchor(string memory anchorID, string memory keySSIType, bytes32 controlString,\r\n        string memory vn, string memory newHashLinkSSI, string memory ZKPValue, string memory lastHashLinkSSI,\r\n        bytes memory signature, bytes memory publicKey) public {\r\n            //todo : implementa validation process\r\n            //todo : add error management\r\n            //todo : add new mapping between anchorID and controlString\r\n            //todo : use controlString if is already defined for anchorID and ignore the parameter\r\n            int validateAnchorContinuityResult = validateAnchorContinuity(anchorID, lastHashLinkSSI, newHashLinkSSI);\r\n            if (validateAnchorContinuityResult == 0)\r\n            {\r\n                //hash link are out of sync\r\n                emit InvokeStatus(statusHashLinkOutOfSync);\r\n                return;\r\n            }\r\n\r\n            if (validateAnchorContinuityResult == -1)\r\n            {\r\n                //anchor is new and we must check controlString\r\n                if (isEmptyBytes32(controlString))\r\n                {\r\n                    emit InvokeStatus(statusControlStringEmptyOnNewAnchor);\r\n                    return;\r\n                }\r\n                // add controlString to the mapping\r\n                anchorControlStrings[anchorID] = controlString;\r\n            }\r\n\r\n            //validate hash of the publicKey\r\n            //todo : enable\r\n            //if (validatePublicKeyHash(publicKey,anchorID) == -1)\r\n            //{\r\n                //emit InvokeStatus(statusHashOfPublicKeyDoesntMatchControlString);\r\n                //return;\r\n            //}\r\n\r\n            //validate signature\r\n            //todo : enable\r\n            //if (!validateSignature(anchorID, newHashLinkSSI,ZKPValue,lastHashLinkSSI, signature,publicKey))\r\n            //{\r\n                //emit InvokeStatus(statusSignatureCheckFailed);\r\n                //return;\r\n            //}\r\n\r\n            //create new anchor value\r\n            AnchorValue memory anchorValue = buildAnchorValue(newHashLinkSSI,lastHashLinkSSI,ZKPValue);\r\n            anchorStorage.push(anchorValue);\r\n            uint versionIndex = anchorStorage.length - 1;\r\n            //update number of versions available for that anchor\r\n            anchorVersions[anchorID].push(versionIndex);\r\n\r\n            //all done, invoke ok status\r\n            emit InvokeStatus(statusOK);\r\n    }\r\n\r\n\r\n\r\n\r\n    function validatePublicKeyAndControlString(bytes memory publicKey,bytes32 controlString) public returns (bool)\r\n    {\r\n        return (sha256(publicKey) == controlString);\r\n    }\r\n\r\n\r\n    function validatePublicKeyHash(bytes memory publicKey, string memory anchorID) public returns (int)\r\n    {\r\n        bytes32 controlString =  anchorControlStrings[anchorID];\r\n        if (validatePublicKeyAndControlString(publicKey,controlString))\r\n        {\r\n            //we have match. All is ok.\r\n            return 1;\r\n        }\r\n\r\n        //validation failed\r\n        return -1;\r\n    }\r\n\r\n    function recover(bytes32 hash, bytes memory signature) private pure returns (address)\r\n    {\r\n        bytes32 r;\r\n        bytes32 s;\r\n        uint8 v;\r\n\r\n        // Check the signature length\r\n        if (signature.length != 65) {\r\n            return (address(0));\r\n        }\r\n\r\n        // Divide the signature in r, s and v variables\r\n        // ecrecover takes the signature parameters, and the only way to get them\r\n        // currently is to use assembly.\r\n        // solium-disable-next-line security/no-inline-assembly\r\n        assembly {\r\n            r := mload(add(signature, 32))\r\n            s := mload(add(signature, 64))\r\n            v := byte(0, mload(add(signature, 96)))\r\n        }\r\n\r\n        // Version of signature should be 27 or 28, but 0 and 1 are also possible versions\r\n        if (v < 27) {\r\n            v += 27;\r\n        }\r\n\r\n        // If the version is correct return the signer address\r\n        if (v != 27 && v != 28) {\r\n            return (address(0));\r\n        } else {\r\n            // solium-disable-next-line arg-overflow\r\n            return ecrecover(hash, v, r, s);\r\n        }\r\n    }\r\n\r\n\r\n    //this is a verification function exposed only to check the verification signature process\r\n    //todo : for production change this function to private\r\n    function validateSignature(string memory anchorID,string memory newHashLinkSSI,string memory ZKPValue,\r\n        string memory lastHashLinkSSI, bytes memory signature, bytes memory publicKey) public returns (bool)\r\n    {\r\n        return calculateAddress(publicKey) == getAddressFromHashAndSig(anchorID, newHashLinkSSI, ZKPValue, lastHashLinkSSI, signature);\r\n    }\r\n\r\n    //this is a verification function exposed only to check the verification signature process\r\n    //todo : for production change this function to private\r\n    function calculateAddress(bytes memory pub) public pure returns (address addr) {\r\n        // address is 65 bytes\r\n        // lose the first byte 0x04, use only the 64 bytes\r\n        // sha256 (64 bytes)\r\n        // get the 20 bytes\r\n        bytes memory pubk = get64(pub);\r\n\r\n        bytes32 hash = keccak256(pubk);\r\n        assembly {\r\n            mstore(0, hash)\r\n            addr := mload(0)\r\n        }\r\n    }\r\n\r\n    //this is a verification function exposed only to check the verification signature process\r\n    //todo : for production change this function to private\r\n    function get64(bytes memory pub) public pure returns (bytes memory)\r\n    {\r\n        //format 0x04bytes32bytes32\r\n        bytes32 first32;\r\n        bytes32 second32;\r\n        assembly {\r\n            //intentional 0x04bytes32 -> bytes32. We drop 0x04\r\n            first32 := mload(add(pub, 33))\r\n            second32 := mload(add(pub, 65))\r\n        }\r\n\r\n        return abi.encodePacked(first32,second32);\r\n    }\r\n\r\n    //this is a verification function exposed only to check the verification signature process\r\n    //todo : for production change this function to private\r\n    function getAddressFromHashAndSig(string memory anchorID,string memory newHashLinkSSI,string memory ZKPValue,\r\n        string memory lastHashLinkSSI, bytes memory signature) public returns (address)\r\n    {\r\n        //return the public key derivation\r\n        return recover(getHashToBeChecked(anchorID,newHashLinkSSI,ZKPValue,lastHashLinkSSI), signature);\r\n    }\r\n\r\n    //this is a verification function exposed only to check the verification signature process\r\n    //todo : for production change this function to private\r\n    function getHashToBeChecked(string memory anchorID,string memory newHashLinkSSI,string memory ZKPValue,\r\n        string memory lastHashLinkSSI) public view returns (bytes32)\r\n    {\r\n        //use abi.encodePacked to not pad the inputs\r\n        if (anchorVersions[anchorID].length == 0)\r\n        {\r\n            return sha256(abi.encodePacked(anchorID,newHashLinkSSI,ZKPValue));\r\n        }\r\n            return sha256(abi.encodePacked(anchorID,newHashLinkSSI,ZKPValue,lastHashLinkSSI));\r\n    }\r\n\r\n    function validateAnchorContinuity(string memory anchorID, string memory lastHashLinkSSI, string memory newHashLinkSSI) private returns (int)\r\n    {\r\n        if (anchorVersions[anchorID].length == 0)\r\n        {\r\n            //first anchor to be added\r\n            return -1;\r\n        }\r\n        uint index = anchorVersions[anchorID][anchorVersions[anchorID].length-1];\r\n\r\n        //can import StringUtils contract or compare hashes\r\n        //hash compare seems faster\r\n        if (sha256(bytes(anchorStorage[index].hash.newHashLinkSSI)) == sha256(bytes(lastHashLinkSSI)))\r\n        {\r\n            //ensure we dont get double hashLinkSSI\r\n            if (sha256(bytes(newHashLinkSSI)) == sha256(bytes(lastHashLinkSSI)))\r\n            {\r\n                //raise out of sync. the hashlinks should be different, except 1st anchor\r\n                return 0;\r\n            }\r\n            //last hash link from contract is a match with the one passed\r\n            return 1;\r\n        }\r\n        //hash link is out of sync. the last hash link stored doesnt match with the last hash link passed\r\n        return 0;\r\n    }\r\n\r\n    function buildAnchorValue(string memory newHashLinkSSI, string memory lastHashLinkSSI, string memory ZKPValue) private pure returns (AnchorValue memory){\r\n        AnchorHash memory anchorHash = AnchorHash(newHashLinkSSI, lastHashLinkSSI);\r\n        return AnchorValue(anchorHash, ZKPValue);\r\n    }\r\n\r\n    function copyAnchorValue(AnchorValue memory anchorValue) private pure returns (AnchorValue memory){\r\n        return buildAnchorValue(anchorValue.hash.newHashLinkSSI, anchorValue.hash.lastHashLinkSSI, anchorValue.ZKPValue);\r\n    }\r\n\r\n    // public function\r\n    function getAnchorVersions(string memory anchor) public view returns (AnchorValue[] memory) {\r\n        if (anchorVersions[anchor].length == 0)\r\n        {\r\n            return new AnchorValue[](0);\r\n        }\r\n        uint[] memory indexList = anchorVersions[anchor];\r\n        AnchorValue[] memory result = new AnchorValue[] (indexList.length);\r\n        for (uint i=0;i<indexList.length;i++){\r\n            result[i] = copyAnchorValue(anchorStorage[indexList[i]]);\r\n        }\r\n\r\n        return result;\r\n\r\n    }\r\n\r\n\r\n    //utility functions\r\n\r\n    function isEmptyBytes32(bytes32 data) public pure returns (bool)\r\n    {\r\n        return data[0] == 0;\r\n    }\r\n\r\n    function isStringEmpty(string memory data) private pure returns (bool)\r\n    {\r\n        bytes memory bdata = bytes(data);\r\n        if (bdata.length == 0)\r\n        {\r\n            return true;\r\n        }\r\n        return false;\r\n    }\r\n\r\n\r\n    function stringToBytes32(string memory source) private pure returns (bytes32 result) {\r\n        bytes memory tempEmptyStringTest = bytes(source);\r\n        if (tempEmptyStringTest.length == 0) {\r\n            return 0x0;\r\n        }\r\n\r\n        assembly {\r\n            result := mload(add(source, 32))\r\n        }\r\n    }\r\n}",
  "sourcePath": "D:/Pharma/WD/epi-workspace/ethereum-anchoring/SmartContract/contracts/AnchorContract.sol",
  "compiler": {
    "name": "solc",
    "version": "0.5.16+commit.9c3226ce.Emscripten.clang"
  },
  "schemaVersion": "3.3.1",
  "updatedAt": "2020-11-22T11:25:42.617Z",
  "networkType": "ethereum",
  "devdoc": {
    "methods": {}
  },
  "userdoc": {
    "methods": {}
  }
}