{
  "contractName": "AnchorContract",
  "abi": [
    {
      "inputs": [],
      "payable": false,
      "stateMutability": "nonpayable",
      "type": "constructor"
    },
    {
      "anonymous": false,
      "inputs": [
        {
          "indexed": true,
          "internalType": "uint256",
          "name": "statusCode",
          "type": "uint256"
        }
      ],
      "name": "InvokeStatus",
      "type": "event"
    },
    {
      "constant": false,
      "inputs": [
        {
          "internalType": "string",
          "name": "anchorID",
          "type": "string"
        },
        {
          "internalType": "string",
          "name": "keySSIType",
          "type": "string"
        },
        {
          "internalType": "bytes32",
          "name": "controlString",
          "type": "bytes32"
        },
        {
          "internalType": "string",
          "name": "vn",
          "type": "string"
        },
        {
          "internalType": "string",
          "name": "newHashLinkSSI",
          "type": "string"
        },
        {
          "internalType": "string",
          "name": "ZKPValue",
          "type": "string"
        },
        {
          "internalType": "string",
          "name": "lastHashLinkSSI",
          "type": "string"
        },
        {
          "internalType": "bytes",
          "name": "signature",
          "type": "bytes"
        },
        {
          "internalType": "bytes",
          "name": "publicKey",
          "type": "bytes"
        }
      ],
      "name": "addAnchor",
      "outputs": [],
      "payable": false,
      "stateMutability": "nonpayable",
      "type": "function"
    },
    {
      "constant": false,
      "inputs": [
        {
          "internalType": "bytes",
          "name": "publicKey",
          "type": "bytes"
        },
        {
          "internalType": "bytes32",
          "name": "controlString",
          "type": "bytes32"
        }
      ],
      "name": "validatePublicKeyAndControlString",
      "outputs": [
        {
          "internalType": "bool",
          "name": "",
          "type": "bool"
        }
      ],
      "payable": false,
      "stateMutability": "nonpayable",
      "type": "function"
    },
    {
      "constant": false,
      "inputs": [
        {
          "internalType": "bytes",
          "name": "publicKey",
          "type": "bytes"
        },
        {
          "internalType": "string",
          "name": "anchorID",
          "type": "string"
        }
      ],
      "name": "validatePublicKeyHash",
      "outputs": [
        {
          "internalType": "int256",
          "name": "",
          "type": "int256"
        }
      ],
      "payable": false,
      "stateMutability": "nonpayable",
      "type": "function"
    },
    {
      "constant": false,
      "inputs": [
        {
          "internalType": "string",
          "name": "anchorID",
          "type": "string"
        },
        {
          "internalType": "string",
          "name": "newHashLinkSSI",
          "type": "string"
        },
        {
          "internalType": "string",
          "name": "ZKPValue",
          "type": "string"
        },
        {
          "internalType": "string",
          "name": "lastHashLinkSSI",
          "type": "string"
        },
        {
          "internalType": "bytes",
          "name": "signature",
          "type": "bytes"
        },
        {
          "internalType": "bytes",
          "name": "publicKey",
          "type": "bytes"
        }
      ],
      "name": "validateSignature",
      "outputs": [
        {
          "internalType": "bool",
          "name": "",
          "type": "bool"
        }
      ],
      "payable": false,
      "stateMutability": "nonpayable",
      "type": "function"
    },
    {
      "constant": true,
      "inputs": [
        {
          "internalType": "bytes",
          "name": "pub",
          "type": "bytes"
        }
      ],
      "name": "calculateAddress",
      "outputs": [
        {
          "internalType": "address",
          "name": "addr",
          "type": "address"
        }
      ],
      "payable": false,
      "stateMutability": "pure",
      "type": "function"
    },
    {
      "constant": true,
      "inputs": [
        {
          "internalType": "bytes",
          "name": "pub",
          "type": "bytes"
        }
      ],
      "name": "get64",
      "outputs": [
        {
          "internalType": "bytes",
          "name": "",
          "type": "bytes"
        }
      ],
      "payable": false,
      "stateMutability": "pure",
      "type": "function"
    },
    {
      "constant": false,
      "inputs": [
        {
          "internalType": "string",
          "name": "anchorID",
          "type": "string"
        },
        {
          "internalType": "string",
          "name": "newHashLinkSSI",
          "type": "string"
        },
        {
          "internalType": "string",
          "name": "ZKPValue",
          "type": "string"
        },
        {
          "internalType": "string",
          "name": "lastHashLinkSSI",
          "type": "string"
        },
        {
          "internalType": "bytes",
          "name": "signature",
          "type": "bytes"
        }
      ],
      "name": "getAddressFromHashAndSig",
      "outputs": [
        {
          "internalType": "address",
          "name": "",
          "type": "address"
        }
      ],
      "payable": false,
      "stateMutability": "nonpayable",
      "type": "function"
    },
    {
      "constant": true,
      "inputs": [
        {
          "internalType": "string",
          "name": "anchorID",
          "type": "string"
        },
        {
          "internalType": "string",
          "name": "newHashLinkSSI",
          "type": "string"
        },
        {
          "internalType": "string",
          "name": "ZKPValue",
          "type": "string"
        },
        {
          "internalType": "string",
          "name": "lastHashLinkSSI",
          "type": "string"
        }
      ],
      "name": "getHashToBeChecked",
      "outputs": [
        {
          "internalType": "bytes32",
          "name": "",
          "type": "bytes32"
        }
      ],
      "payable": false,
      "stateMutability": "view",
      "type": "function"
    },
    {
      "constant": true,
      "inputs": [
        {
          "internalType": "string",
          "name": "anchor",
          "type": "string"
        }
      ],
      "name": "getAnchorVersions",
      "outputs": [
        {
          "components": [
            {
              "components": [
                {
                  "internalType": "string",
                  "name": "newHashLinkSSI",
                  "type": "string"
                },
                {
                  "internalType": "string",
                  "name": "lastHashLinkSSI",
                  "type": "string"
                }
              ],
              "internalType": "struct AnchorContract.AnchorHash",
              "name": "hash",
              "type": "tuple"
            },
            {
              "internalType": "string",
              "name": "ZKPValue",
              "type": "string"
            }
          ],
          "internalType": "struct AnchorContract.AnchorValue[]",
          "name": "",
          "type": "tuple[]"
        }
      ],
      "payable": false,
      "stateMutability": "view",
      "type": "function"
    },
    {
      "constant": true,
      "inputs": [
        {
          "internalType": "bytes32",
          "name": "data",
          "type": "bytes32"
        }
      ],
      "name": "isEmptyBytes32",
      "outputs": [
        {
          "internalType": "bool",
          "name": "",
          "type": "bool"
        }
      ],
      "payable": false,
      "stateMutability": "pure",
      "type": "function"
    }
  ],
  "bytecode": "0x608060405234801561001057600080fd5b50611e03806100206000396000f3fe608060405234801561001057600080fd5b506004361061009e5760003560e01c8063ab46b02411610066578063ab46b02414610193578063b9690fe3146101c3578063cdab80e3146101f3578063ce43b1101461020f578063e8a4c04e1461023f5761009e565b80632f9b595d146100a35780634222fd23146100d357806380126744146101035780638a74bf991461013357806397653cb714610163575b600080fd5b6100bd60048036036100b8919081019061144c565b61026f565b6040516100ca9190611b24565b60405180910390f35b6100ed60048036036100e89190810190611132565b610394565b6040516100fa9190611b09565b60405180910390f35b61011d600480360361011891908101906111c5565b6103d5565b60405161012a9190611b09565b60405180910390f35b61014d60048036036101489190810190611184565b610431565b60405161015a9190611b84565b60405180910390f35b61017d6004803603610178919081019061150f565b61046f565b60405161018a9190611acc565b60405180910390f35b6101ad60048036036101a89190810190611285565b610491565b6040516101ba9190611ae7565b60405180910390f35b6101dd60048036036101d89190810190611219565b61082b565b6040516101ea9190611ba6565b60405180910390f35b61020d600480360361020891908101906112c6565b610893565b005b610229600480360361022491908101906115fe565b610b52565b6040516102369190611b09565b60405180910390f35b61025960048036036102549190810190611184565b610ba3565b6040516102669190611acc565b60405180910390f35b6000806001866040516102829190611a46565b90815260200160405180910390208054905014156103145760028585856040516020016102b193929190611a5d565b6040516020818303038152906040526040516102cd9190611a18565b602060405180830381855afa1580156102ea573d6000803e3d6000fd5b5050506040513d601f19601f8201168201806040525061030d919081019061115b565b905061038c565b60028585858560405160200161032d9493929190611a8e565b6040516020818303038152906040526040516103499190611a18565b602060405180830381855afa158015610366573d6000803e3d6000fd5b5050506040513d601f19601f82011682018060405250610389919081019061115b565b90505b949350505050565b60008060f81b826000602081106103a757fe5b1a60f81b7effffffffffffffffffffffffffffffffffffffffffffffffffffffffffffff1916149050919050565b6000816002846040516103e89190611a18565b602060405180830381855afa158015610405573d6000803e3d6000fd5b5050506040513d601f19601f82011682018060405250610428919081019061115b565b14905092915050565b6060600080602184015191506041840151905081816040516020016104579291906119ec565b60405160208183030381529060405292505050919050565b60006104866104808787878761026f565b83610bce565b905095945050505050565b606060006001836040516104a59190611a46565b90815260200160405180910390208054905014156105005760006040519080825280602002602001820160405280156104f857816020015b6104e5610f47565b8152602001906001900390816104dd5790505b509050610826565b60606001836040516105129190611a46565b908152602001604051809103902080548060200260200160405190810160405280929190818152602001828054801561056a57602002820191906000526020600020905b815481526020019060010190808311610556575b50505050509050606081516040519080825280602002602001820160405280156105ae57816020015b61059b610f47565b8152602001906001900390816105935790505b50905060008090505b825181101561081f576107fb60008483815181106105d157fe5b6020026020010151815481106105e357fe5b906000526020600020906003020160405180604001604052908160008201604051806040016040529081600082018054600181600116156101000203166002900480601f0160208091040260200160405190810160405280929190818152602001828054600181600116156101000203166002900480156106a55780601f1061067a576101008083540402835291602001916106a5565b820191906000526020600020905b81548152906001019060200180831161068857829003601f168201915b50505050508152602001600182018054600181600116156101000203166002900480601f0160208091040260200160405190810160405280929190818152602001828054600181600116156101000203166002900480156107475780601f1061071c57610100808354040283529160200191610747565b820191906000526020600020905b81548152906001019060200180831161072a57829003601f168201915b5050505050815250508152602001600282018054600181600116156101000203166002900480601f0160208091040260200160405190810160405280929190818152602001828054600181600116156101000203166002900480156107ed5780601f106107c2576101008083540402835291602001916107ed565b820191906000526020600020905b8154815290600101906020018083116107d057829003601f168201915b505050505081525050610c98565b82828151811061080757fe5b602002602001018190525080806001019150506105b7565b5080925050505b919050565b60008060028360405161083e9190611a46565b908152602001604051809103902054905061085984826103d5565b1561086857600191505061088d565b7fffffffffffffffffffffffffffffffffffffffffffffffffffffffffffffffff9150505b92915050565b60006108a08a8588610cc6565b905060008114156108df5760647f4946ccdaf82fd5a93c40e96bfc3e4486f2b1d95879aecd4b186cd3e2adb3f4b960405160405180910390a250610b47565b7fffffffffffffffffffffffffffffffffffffffffffffffffffffffffffffffff81141561096d5761091088610394565b156109495760657f4946ccdaf82fd5a93c40e96bfc3e4486f2b1d95879aecd4b186cd3e2adb3f4b960405160405180910390a250610b47565b8760028b60405161095a9190611a46565b9081526020016040518091039020819055505b7fffffffffffffffffffffffffffffffffffffffffffffffffffffffffffffffff610998838c61082b565b14156109d25760667f4946ccdaf82fd5a93c40e96bfc3e4486f2b1d95879aecd4b186cd3e2adb3f4b960405160405180910390a250610b47565b6109e08a8787878787610b52565b610a185760677f4946ccdaf82fd5a93c40e96bfc3e4486f2b1d95879aecd4b186cd3e2adb3f4b960405160405180910390a250610b47565b610a20610f67565b610a2b878688610f01565b9050600081908060018154018082558091505090600182039060005260206000209060030201600090919290919091506000820151816000016000820151816000019080519060200190610a80929190610f87565b506020820151816001019080519060200190610a9d929190610f87565b5050506020820151816002019080519060200190610abc929190610f87565b505050506000600160008054905003905060018c604051610add9190611a46565b908152602001604051809103902081908060018154018082558091505090600182039060005260206000200160009091929091909150555060c87f4946ccdaf82fd5a93c40e96bfc3e4486f2b1d95879aecd4b186cd3e2adb3f4b960405160405180910390a25050505b505050505050505050565b6000610b61878787878761046f565b73ffffffffffffffffffffffffffffffffffffffff16610b8083610ba3565b73ffffffffffffffffffffffffffffffffffffffff161490509695505050505050565b60006060610bb083610431565b90506000818051906020012090508060005260005192505050919050565b6000806000806041855114610be95760009350505050610c92565b6020850151925060408501519150606085015160001a9050601b8160ff161015610c1457601b810190505b601b8160ff1614158015610c2c5750601c8160ff1614155b15610c3d5760009350505050610c92565b60018682858560405160008152602001604052604051610c609493929190611b3f565b6020604051602081039080840390855afa158015610c82573d6000803e3d6000fd5b5050506020604051035193505050505b92915050565b610ca0610f67565b610cbf8260000151600001518360000151602001518460200151610f01565b9050919050565b600080600185604051610cd99190611a46565b9081526020016040518091039020805490501415610d19577fffffffffffffffffffffffffffffffffffffffffffffffffffffffffffffffff9050610efa565b6000600185604051610d2b9190611a46565b908152602001604051809103902060018087604051610d4a9190611a46565b9081526020016040518091039020805490500381548110610d6757fe5b90600052602060002001549050600284604051610d849190611a18565b602060405180830381855afa158015610da1573d6000803e3d6000fd5b5050506040513d601f19601f82011682018060405250610dc4919081019061115b565b600260008381548110610dd357fe5b9060005260206000209060030201600001600001604051610df49190611a2f565b602060405180830381855afa158015610e11573d6000803e3d6000fd5b5050506040513d601f19601f82011682018060405250610e34919081019061115b565b1415610ef457600284604051610e4a9190611a18565b602060405180830381855afa158015610e67573d6000803e3d6000fd5b5050506040513d601f19601f82011682018060405250610e8a919081019061115b565b600284604051610e9a9190611a18565b602060405180830381855afa158015610eb7573d6000803e3d6000fd5b5050506040513d601f19601f82011682018060405250610eda919081019061115b565b1415610eea576000915050610efa565b6001915050610efa565b60009150505b9392505050565b610f09610f67565b610f11611007565b60405180604001604052808681526020018581525090506040518060400160405280828152602001848152509150509392505050565b6040518060400160405280610f5a611021565b8152602001606081525090565b6040518060400160405280610f7a611021565b8152602001606081525090565b828054600181600116156101000203166002900490600052602060002090601f016020900481019282601f10610fc857805160ff1916838001178555610ff6565b82800160010185558215610ff6579182015b82811115610ff5578251825591602001919060010190610fda565b5b509050611003919061103b565b5090565b604051806040016040528060608152602001606081525090565b604051806040016040528060608152602001606081525090565b61105d91905b80821115611059576000816000905550600101611041565b5090565b90565b60008135905061106f81611da9565b92915050565b60008151905061108481611da9565b92915050565b600082601f83011261109b57600080fd5b81356110ae6110a982611bee565b611bc1565b915080825260208301602083018583830111156110ca57600080fd5b6110d5838284611d4c565b50505092915050565b600082601f8301126110ef57600080fd5b81356111026110fd82611c1a565b611bc1565b9150808252602083016020830185838301111561111e57600080fd5b611129838284611d4c565b50505092915050565b60006020828403121561114457600080fd5b600061115284828501611060565b91505092915050565b60006020828403121561116d57600080fd5b600061117b84828501611075565b91505092915050565b60006020828403121561119657600080fd5b600082013567ffffffffffffffff8111156111b057600080fd5b6111bc8482850161108a565b91505092915050565b600080604083850312156111d857600080fd5b600083013567ffffffffffffffff8111156111f257600080fd5b6111fe8582860161108a565b925050602061120f85828601611060565b9150509250929050565b6000806040838503121561122c57600080fd5b600083013567ffffffffffffffff81111561124657600080fd5b6112528582860161108a565b925050602083013567ffffffffffffffff81111561126f57600080fd5b61127b858286016110de565b9150509250929050565b60006020828403121561129757600080fd5b600082013567ffffffffffffffff8111156112b157600080fd5b6112bd848285016110de565b91505092915050565b60008060008060008060008060006101208a8c0312156112e557600080fd5b60008a013567ffffffffffffffff8111156112ff57600080fd5b61130b8c828d016110de565b99505060208a013567ffffffffffffffff81111561132857600080fd5b6113348c828d016110de565b98505060406113458c828d01611060565b97505060608a013567ffffffffffffffff81111561136257600080fd5b61136e8c828d016110de565b96505060808a013567ffffffffffffffff81111561138b57600080fd5b6113978c828d016110de565b95505060a08a013567ffffffffffffffff8111156113b457600080fd5b6113c08c828d016110de565b94505060c08a013567ffffffffffffffff8111156113dd57600080fd5b6113e98c828d016110de565b93505060e08a013567ffffffffffffffff81111561140657600080fd5b6114128c828d0161108a565b9250506101008a013567ffffffffffffffff81111561143057600080fd5b61143c8c828d0161108a565b9150509295985092959850929598565b6000806000806080858703121561146257600080fd5b600085013567ffffffffffffffff81111561147c57600080fd5b611488878288016110de565b945050602085013567ffffffffffffffff8111156114a557600080fd5b6114b1878288016110de565b935050604085013567ffffffffffffffff8111156114ce57600080fd5b6114da878288016110de565b925050606085013567ffffffffffffffff8111156114f757600080fd5b611503878288016110de565b91505092959194509250565b600080600080600060a0868803121561152757600080fd5b600086013567ffffffffffffffff81111561154157600080fd5b61154d888289016110de565b955050602086013567ffffffffffffffff81111561156a57600080fd5b611576888289016110de565b945050604086013567ffffffffffffffff81111561159357600080fd5b61159f888289016110de565b935050606086013567ffffffffffffffff8111156115bc57600080fd5b6115c8888289016110de565b925050608086013567ffffffffffffffff8111156115e557600080fd5b6115f18882890161108a565b9150509295509295909350565b60008060008060008060c0878903121561161757600080fd5b600087013567ffffffffffffffff81111561163157600080fd5b61163d89828a016110de565b965050602087013567ffffffffffffffff81111561165a57600080fd5b61166689828a016110de565b955050604087013567ffffffffffffffff81111561168357600080fd5b61168f89828a016110de565b945050606087013567ffffffffffffffff8111156116ac57600080fd5b6116b889828a016110de565b935050608087013567ffffffffffffffff8111156116d557600080fd5b6116e189828a0161108a565b92505060a087013567ffffffffffffffff8111156116fe57600080fd5b61170a89828a0161108a565b9150509295509295509295565b60006117238383611999565b905092915050565b61173481611ced565b82525050565b600061174582611c6b565b61174f8185611ca4565b93508360208202850161176185611c46565b8060005b8581101561179d578484038952815161177e8582611717565b945061178983611c97565b925060208a01995050600181019050611765565b50829750879550505050505092915050565b6117b881611cff565b82525050565b6117c781611d0b565b82525050565b6117de6117d982611d0b565b611d8e565b82525050565b60006117ef82611c76565b6117f98185611cb5565b9350611809818560208601611d5b565b61181281611d98565b840191505092915050565b600061182882611c76565b6118328185611cc6565b9350611842818560208601611d5b565b80840191505092915050565b60008154600181166000811461186b5760018114611890576118d4565b607f600283041661187c8187611cc6565b955060ff19831686528086019350506118d4565b6002820461189e8187611cc6565b95506118a985611c56565b60005b828110156118cb578154818901526001820191506020810190506118ac565b82880195505050505b505092915050565b6118e581611d15565b82525050565b60006118f682611c8c565b6119008185611ce2565b9350611910818560208601611d5b565b80840191505092915050565b600061192782611c81565b6119318185611cd1565b9350611941818560208601611d5b565b61194a81611d98565b840191505092915050565b60006040830160008301518482036000860152611972828261191c565b9150506020830151848203602086015261198c828261191c565b9150508091505092915050565b600060408301600083015184820360008601526119b68282611955565b915050602083015184820360208601526119d0828261191c565b9150508091505092915050565b6119e681611d3f565b82525050565b60006119f882856117cd565b602082019150611a0882846117cd565b6020820191508190509392505050565b6000611a24828461181d565b915081905092915050565b6000611a3b828461184e565b915081905092915050565b6000611a5282846118eb565b915081905092915050565b6000611a6982866118eb565b9150611a7582856118eb565b9150611a8182846118eb565b9150819050949350505050565b6000611a9a82876118eb565b9150611aa682866118eb565b9150611ab282856118eb565b9150611abe82846118eb565b915081905095945050505050565b6000602082019050611ae1600083018461172b565b92915050565b60006020820190508181036000830152611b01818461173a565b905092915050565b6000602082019050611b1e60008301846117af565b92915050565b6000602082019050611b3960008301846117be565b92915050565b6000608082019050611b5460008301876117be565b611b6160208301866119dd565b611b6e60408301856117be565b611b7b60608301846117be565b95945050505050565b60006020820190508181036000830152611b9e81846117e4565b905092915050565b6000602082019050611bbb60008301846118dc565b92915050565b6000604051905081810181811067ffffffffffffffff82111715611be457600080fd5b8060405250919050565b600067ffffffffffffffff821115611c0557600080fd5b601f19601f8301169050602081019050919050565b600067ffffffffffffffff821115611c3157600080fd5b601f19601f8301169050602081019050919050565b6000819050602082019050919050565b60008190508160005260206000209050919050565b600081519050919050565b600081519050919050565b600081519050919050565b600081519050919050565b6000602082019050919050565b600082825260208201905092915050565b600082825260208201905092915050565b600081905092915050565b600082825260208201905092915050565b600081905092915050565b6000611cf882611d1f565b9050919050565b60008115159050919050565b6000819050919050565b6000819050919050565b600073ffffffffffffffffffffffffffffffffffffffff82169050919050565b600060ff82169050919050565b82818337600083830152505050565b60005b83811015611d79578082015181840152602081019050611d5e565b83811115611d88576000848401525b50505050565b6000819050919050565b6000601f19601f8301169050919050565b611db281611d0b565b8114611dbd57600080fd5b5056fea365627a7a72315820388587418529c2ea145975038e833b186fc470ffc00d77c38b483e4e04ba1a726c6578706572696d656e74616cf564736f6c63430005100040",
  "source": "pragma solidity >= 0.5.0 <= 0.7.4;\r\npragma experimental ABIEncoderV2;\r\n\r\ncontract AnchorContract {\r\n\r\n    // error codes\r\n    uint constant statusOK = 200;\r\n    uint constant statusHashLinkOutOfSync = 100;\r\n    uint constant statusControlStringEmptyOnNewAnchor = 101;\r\n    uint constant statusHashOfPublicKeyDoesntMatchControlString = 102;\r\n    uint constant statusSignatureCheckFailed = 103;\r\n\r\n    event InvokeStatus(uint indexed statusCode);\r\n\r\n    struct AnchorHash {\r\n        string newHashLinkSSI;\r\n        string lastHashLinkSSI;\r\n    }\r\n\r\n    struct AnchorValue {\r\n        AnchorHash hash;\r\n        string ZKPValue;\r\n    }\r\n\r\n    // store all anchors\r\n    AnchorValue[] anchorStorage;\r\n    //keep a mapping between anchor(keySSI) and it's versions\r\n    mapping (string => uint[]) anchorVersions;\r\n\r\n    //mapping between anchorID and controlString.\r\n    mapping (string => bytes32) anchorControlStrings;\r\n\r\n\r\n\r\n    constructor() public {\r\n\r\n\r\n    }\r\n\r\n\r\n    // public function\r\n    function addAnchor(string memory anchorID, string memory keySSIType, bytes32 controlString,\r\n        string memory vn, string memory newHashLinkSSI, string memory ZKPValue, string memory lastHashLinkSSI,\r\n        bytes memory signature, bytes memory publicKey) public {\r\n            //todo : implementa validation process\r\n            //todo : add error management\r\n            //todo : add new mapping between anchorID and controlString\r\n            //todo : use controlString if is already defined for anchorID and ignore the parameter\r\n            int validateAnchorContinuityResult = validateAnchorContinuity(anchorID, lastHashLinkSSI, newHashLinkSSI);\r\n            if (validateAnchorContinuityResult == 0)\r\n            {\r\n                //hash link are out of sync\r\n                emit InvokeStatus(statusHashLinkOutOfSync);\r\n                return;\r\n            }\r\n\r\n            if (validateAnchorContinuityResult == -1)\r\n            {\r\n                //anchor is new and we must check controlString\r\n                if (isEmptyBytes32(controlString))\r\n                {\r\n                    emit InvokeStatus(statusControlStringEmptyOnNewAnchor);\r\n                    return;\r\n                }\r\n                // add controlString to the mapping\r\n                anchorControlStrings[anchorID] = controlString;\r\n            }\r\n\r\n            //validate hash of the publicKey\r\n            //todo : enable\r\n            if (validatePublicKeyHash(publicKey,anchorID) == -1)\r\n            {\r\n                emit InvokeStatus(statusHashOfPublicKeyDoesntMatchControlString);\r\n                return;\r\n            }\r\n\r\n            //validate signature\r\n            //todo : enable\r\n            if (!validateSignature(anchorID, newHashLinkSSI,ZKPValue,lastHashLinkSSI, signature,publicKey))\r\n            {\r\n                emit InvokeStatus(statusSignatureCheckFailed);\r\n                return;\r\n            }\r\n\r\n            //create new anchor value\r\n            AnchorValue memory anchorValue = buildAnchorValue(newHashLinkSSI,lastHashLinkSSI,ZKPValue);\r\n            anchorStorage.push(anchorValue);\r\n            uint versionIndex = anchorStorage.length - 1;\r\n            //update number of versions available for that anchor\r\n            anchorVersions[anchorID].push(versionIndex);\r\n\r\n            //all done, invoke ok status\r\n            emit InvokeStatus(statusOK);\r\n    }\r\n\r\n\r\n\r\n\r\n    function validatePublicKeyAndControlString(bytes memory publicKey,bytes32 controlString) public returns (bool)\r\n    {\r\n        return (sha256(publicKey) == controlString);\r\n    }\r\n\r\n\r\n    function validatePublicKeyHash(bytes memory publicKey, string memory anchorID) public returns (int)\r\n    {\r\n        bytes32 controlString =  anchorControlStrings[anchorID];\r\n        if (validatePublicKeyAndControlString(publicKey,controlString))\r\n        {\r\n            //we have match. All is ok.\r\n            return 1;\r\n        }\r\n\r\n        //validation failed\r\n        return -1;\r\n    }\r\n\r\n    function recover(bytes32 hash, bytes memory signature) private pure returns (address)\r\n    {\r\n        bytes32 r;\r\n        bytes32 s;\r\n        uint8 v;\r\n\r\n        // Check the signature length\r\n        if (signature.length != 65) {\r\n            return (address(0));\r\n        }\r\n\r\n        // Divide the signature in r, s and v variables\r\n        // ecrecover takes the signature parameters, and the only way to get them\r\n        // currently is to use assembly.\r\n        // solium-disable-next-line security/no-inline-assembly\r\n        assembly {\r\n            r := mload(add(signature, 32))\r\n            s := mload(add(signature, 64))\r\n            v := byte(0, mload(add(signature, 96)))\r\n        }\r\n\r\n        // Version of signature should be 27 or 28, but 0 and 1 are also possible versions\r\n        if (v < 27) {\r\n            v += 27;\r\n        }\r\n\r\n        // If the version is correct return the signer address\r\n        if (v != 27 && v != 28) {\r\n            return (address(0));\r\n        } else {\r\n            // solium-disable-next-line arg-overflow\r\n            return ecrecover(hash, v, r, s);\r\n        }\r\n    }\r\n\r\n\r\n    //this is a verification function exposed only to check the verification signature process\r\n    //todo : for production change this function to private\r\n    function validateSignature(string memory anchorID,string memory newHashLinkSSI,string memory ZKPValue,\r\n        string memory lastHashLinkSSI, bytes memory signature, bytes memory publicKey) public returns (bool)\r\n    {\r\n        return calculateAddress(publicKey) == getAddressFromHashAndSig(anchorID, newHashLinkSSI, ZKPValue, lastHashLinkSSI, signature);\r\n    }\r\n\r\n    //this is a verification function exposed only to check the verification signature process\r\n    //todo : for production change this function to private\r\n    function calculateAddress(bytes memory pub) public pure returns (address addr) {\r\n        // address is 65 bytes\r\n        // lose the first byte 0x04, use only the 64 bytes\r\n        // sha256 (64 bytes)\r\n        // get the 20 bytes\r\n        bytes memory pubk = get64(pub);\r\n\r\n        bytes32 hash = keccak256(pubk);\r\n        assembly {\r\n            mstore(0, hash)\r\n            addr := mload(0)\r\n        }\r\n    }\r\n\r\n    //this is a verification function exposed only to check the verification signature process\r\n    //todo : for production change this function to private\r\n    function get64(bytes memory pub) public pure returns (bytes memory)\r\n    {\r\n        //format 0x04bytes32bytes32\r\n        bytes32 first32;\r\n        bytes32 second32;\r\n        assembly {\r\n            //intentional 0x04bytes32 -> bytes32. We drop 0x04\r\n            first32 := mload(add(pub, 33))\r\n            second32 := mload(add(pub, 65))\r\n        }\r\n\r\n        return abi.encodePacked(first32,second32);\r\n    }\r\n\r\n    //this is a verification function exposed only to check the verification signature process\r\n    //todo : for production change this function to private\r\n    function getAddressFromHashAndSig(string memory anchorID,string memory newHashLinkSSI,string memory ZKPValue,\r\n        string memory lastHashLinkSSI, bytes memory signature) public returns (address)\r\n    {\r\n        //return the public key derivation\r\n        return recover(getHashToBeChecked(anchorID,newHashLinkSSI,ZKPValue,lastHashLinkSSI), signature);\r\n    }\r\n\r\n    //this is a verification function exposed only to check the verification signature process\r\n    //todo : for production change this function to private\r\n    function getHashToBeChecked(string memory anchorID,string memory newHashLinkSSI,string memory ZKPValue,\r\n        string memory lastHashLinkSSI) public view returns (bytes32)\r\n    {\r\n        //use abi.encodePacked to not pad the inputs\r\n        if (anchorVersions[anchorID].length == 0)\r\n        {\r\n            return sha256(abi.encodePacked(anchorID,newHashLinkSSI,ZKPValue));\r\n        }\r\n            return sha256(abi.encodePacked(anchorID,newHashLinkSSI,ZKPValue,lastHashLinkSSI));\r\n    }\r\n\r\n    function validateAnchorContinuity(string memory anchorID, string memory lastHashLinkSSI, string memory newHashLinkSSI) private returns (int)\r\n    {\r\n        if (anchorVersions[anchorID].length == 0)\r\n        {\r\n            //first anchor to be added\r\n            return -1;\r\n        }\r\n        uint index = anchorVersions[anchorID][anchorVersions[anchorID].length-1];\r\n\r\n        //can import StringUtils contract or compare hashes\r\n        //hash compare seems faster\r\n        if (sha256(bytes(anchorStorage[index].hash.newHashLinkSSI)) == sha256(bytes(lastHashLinkSSI)))\r\n        {\r\n            //ensure we dont get double hashLinkSSI\r\n            if (sha256(bytes(newHashLinkSSI)) == sha256(bytes(lastHashLinkSSI)))\r\n            {\r\n                //raise out of sync. the hashlinks should be different, except 1st anchor\r\n                return 0;\r\n            }\r\n            //last hash link from contract is a match with the one passed\r\n            return 1;\r\n        }\r\n        //hash link is out of sync. the last hash link stored doesnt match with the last hash link passed\r\n        return 0;\r\n    }\r\n\r\n    function buildAnchorValue(string memory newHashLinkSSI, string memory lastHashLinkSSI, string memory ZKPValue) private pure returns (AnchorValue memory){\r\n        AnchorHash memory anchorHash = AnchorHash(newHashLinkSSI, lastHashLinkSSI);\r\n        return AnchorValue(anchorHash, ZKPValue);\r\n    }\r\n\r\n    function copyAnchorValue(AnchorValue memory anchorValue) private pure returns (AnchorValue memory){\r\n        return buildAnchorValue(anchorValue.hash.newHashLinkSSI, anchorValue.hash.lastHashLinkSSI, anchorValue.ZKPValue);\r\n    }\r\n\r\n    // public function\r\n    function getAnchorVersions(string memory anchor) public view returns (AnchorValue[] memory) {\r\n        if (anchorVersions[anchor].length == 0)\r\n        {\r\n            return new AnchorValue[](0);\r\n        }\r\n        uint[] memory indexList = anchorVersions[anchor];\r\n        AnchorValue[] memory result = new AnchorValue[] (indexList.length);\r\n        for (uint i=0;i<indexList.length;i++){\r\n            result[i] = copyAnchorValue(anchorStorage[indexList[i]]);\r\n        }\r\n\r\n        return result;\r\n\r\n    }\r\n\r\n\r\n    //utility functions\r\n\r\n    function isEmptyBytes32(bytes32 data) public pure returns (bool)\r\n    {\r\n        return data[0] == 0;\r\n    }\r\n\r\n    function isStringEmpty(string memory data) private pure returns (bool)\r\n    {\r\n        bytes memory bdata = bytes(data);\r\n        if (bdata.length == 0)\r\n        {\r\n            return true;\r\n        }\r\n        return false;\r\n    }\r\n\r\n\r\n    function stringToBytes32(string memory source) private pure returns (bytes32 result) {\r\n        bytes memory tempEmptyStringTest = bytes(source);\r\n        if (tempEmptyStringTest.length == 0) {\r\n            return 0x0;\r\n        }\r\n\r\n        assembly {\r\n            result := mload(add(source, 32))\r\n        }\r\n    }\r\n}",
  "sourcePath": "D:/Pharma/WD/epi-workspace/ethereum-anchoring/SmartContract/contracts/AnchorContract.sol",
  "compiler": {
    "name": "solc",
    "version": "0.5.16+commit.9c3226ce.Emscripten.clang"
  },
  "schemaVersion": "3.3.1",
  "updatedAt": "2020-12-03T14:20:56.113Z",
  "networkType": "ethereum",
  "devdoc": {
    "methods": {}
  },
  "userdoc": {
    "methods": {}
  }
}