{
  "contractName": "AnchorContract",
  "abi": [
    {
      "inputs": [],
      "payable": false,
      "stateMutability": "nonpayable",
      "type": "constructor"
    },
    {
      "anonymous": false,
      "inputs": [
        {
          "indexed": true,
          "internalType": "uint256",
          "name": "statusCode",
          "type": "uint256"
        }
      ],
      "name": "InvokeStatus",
      "type": "event"
    },
    {
      "constant": false,
      "inputs": [
        {
          "internalType": "string",
          "name": "anchorID",
          "type": "string"
        },
        {
          "internalType": "string",
          "name": "keySSIType",
          "type": "string"
        },
        {
          "internalType": "string",
          "name": "controlString",
          "type": "string"
        },
        {
          "internalType": "string",
          "name": "vn",
          "type": "string"
        },
        {
          "internalType": "string",
          "name": "newHashLinkSSI",
          "type": "string"
        },
        {
          "internalType": "string",
          "name": "ZKPValue",
          "type": "string"
        },
        {
          "internalType": "string",
          "name": "lastHashLinkSSI",
          "type": "string"
        },
        {
          "internalType": "string",
          "name": "signature",
          "type": "string"
        },
        {
          "internalType": "string",
          "name": "publicKey",
          "type": "string"
        }
      ],
      "name": "addAnchor",
      "outputs": [],
      "payable": false,
      "stateMutability": "nonpayable",
      "type": "function"
    },
    {
      "constant": true,
      "inputs": [
        {
          "internalType": "bytes32",
          "name": "hash",
          "type": "bytes32"
        },
        {
          "internalType": "bytes",
          "name": "signature",
          "type": "bytes"
        }
      ],
      "name": "recover",
      "outputs": [
        {
          "internalType": "address",
          "name": "",
          "type": "address"
        }
      ],
      "payable": false,
      "stateMutability": "pure",
      "type": "function"
    },
    {
      "constant": false,
      "inputs": [
        {
          "internalType": "string",
          "name": "anchorID",
          "type": "string"
        },
        {
          "internalType": "string",
          "name": "newHashLinkSSI",
          "type": "string"
        },
        {
          "internalType": "string",
          "name": "ZKPValue",
          "type": "string"
        },
        {
          "internalType": "string",
          "name": "lastHashLinkSSI",
          "type": "string"
        },
        {
          "internalType": "string",
          "name": "signature",
          "type": "string"
        },
        {
          "internalType": "string",
          "name": "publicKey",
          "type": "string"
        }
      ],
      "name": "validateSignature",
      "outputs": [
        {
          "internalType": "bool",
          "name": "",
          "type": "bool"
        }
      ],
      "payable": false,
      "stateMutability": "nonpayable",
      "type": "function"
    },
    {
      "constant": false,
      "inputs": [
        {
          "internalType": "bytes",
          "name": "publicKey",
          "type": "bytes"
        }
      ],
      "name": "getAddressFromPublicKey",
      "outputs": [
        {
          "internalType": "uint256",
          "name": "",
          "type": "uint256"
        }
      ],
      "payable": false,
      "stateMutability": "nonpayable",
      "type": "function"
    },
    {
      "constant": false,
      "inputs": [
        {
          "internalType": "string",
          "name": "anchorID",
          "type": "string"
        },
        {
          "internalType": "string",
          "name": "newHashLinkSSI",
          "type": "string"
        },
        {
          "internalType": "string",
          "name": "ZKPValue",
          "type": "string"
        },
        {
          "internalType": "string",
          "name": "lastHashLinkSSI",
          "type": "string"
        },
        {
          "internalType": "string",
          "name": "signature",
          "type": "string"
        }
      ],
      "name": "getAddressFromHashAndSig",
      "outputs": [
        {
          "internalType": "address",
          "name": "",
          "type": "address"
        }
      ],
      "payable": false,
      "stateMutability": "nonpayable",
      "type": "function"
    },
    {
      "constant": true,
      "inputs": [
        {
          "internalType": "string",
          "name": "anchorID",
          "type": "string"
        },
        {
          "internalType": "string",
          "name": "newHashLinkSSI",
          "type": "string"
        },
        {
          "internalType": "string",
          "name": "ZKPValue",
          "type": "string"
        },
        {
          "internalType": "string",
          "name": "lastHashLinkSSI",
          "type": "string"
        }
      ],
      "name": "getHashToBeChecked",
      "outputs": [
        {
          "internalType": "bytes32",
          "name": "",
          "type": "bytes32"
        }
      ],
      "payable": false,
      "stateMutability": "view",
      "type": "function"
    },
    {
      "constant": true,
      "inputs": [
        {
          "internalType": "string",
          "name": "anchor",
          "type": "string"
        }
      ],
      "name": "getAnchorVersions",
      "outputs": [
        {
          "components": [
            {
              "components": [
                {
                  "internalType": "string",
                  "name": "newHashLinkSSI",
                  "type": "string"
                },
                {
                  "internalType": "string",
                  "name": "lastHashLinkSSI",
                  "type": "string"
                }
              ],
              "internalType": "struct AnchorContract.AnchorHash",
              "name": "hash",
              "type": "tuple"
            },
            {
              "internalType": "string",
              "name": "ZKPValue",
              "type": "string"
            }
          ],
          "internalType": "struct AnchorContract.AnchorValue[]",
          "name": "",
          "type": "tuple[]"
        }
      ],
      "payable": false,
      "stateMutability": "view",
      "type": "function"
    }
  ],
  "bytecode": "0x608060405234801561001057600080fd5b50611ee2806100206000396000f3fe608060405234801561001057600080fd5b506004361061007d5760003560e01c8063979db33a1161005b578063979db33a146101125780639a74bbc714610142578063ab46b0241461015e578063e65de76d1461018e5761007d565b806319045a2514610082578063276c1ac0146100b25780632f9b595d146100e2575b600080fd5b61009c60048036036100979190810190611279565b6101be565b6040516100a99190611b2a565b60405180910390f35b6100cc60048036036100c791908101906112cd565b610288565b6040516100d99190611c8f565b60405180910390f35b6100fc60048036036100f7919081019061134f565b6102fa565b6040516101099190611b82565b60405180910390f35b61012c60048036036101279190810190611501565b61041f565b6040516101399190611b67565b60405180910390f35b61015c6004803603610157919081019061161a565b61045a565b005b6101786004803603610173919081019061130e565b61074b565b6040516101859190611b45565b60405180910390f35b6101a860048036036101a39190810190611412565b610ae5565b6040516101b59190611b2a565b60405180910390f35b60008060008060418551146101d95760009350505050610282565b6020850151925060408501519150606085015160001a9050601b8160ff16101561020457601b810190505b601b8160ff161415801561021c5750601c8160ff1614155b1561022d5760009350505050610282565b600186828585604051600081526020016040526040516102509493929190611b9d565b6020604051602081039080840390855afa158015610272573d6000803e3d6000fd5b5050506020604051035193505050505b92915050565b600073ffffffffffffffffffffffffffffffffffffffff6002836040516102af9190611a76565b602060405180830381855afa1580156102cc573d6000803e3d6000fd5b5050506040513d601f19601f820116820180604052506102ef9190810190611250565b60001c169050919050565b60008060018660405161030d9190611aa4565b908152602001604051809103902080549050141561039f57600285858560405160200161033c93929190611abb565b6040516020818303038152906040526040516103589190611a76565b602060405180830381855afa158015610375573d6000803e3d6000fd5b5050506040513d601f19601f820116820180604052506103989190810190611250565b9050610417565b6002858585856040516020016103b89493929190611aec565b6040516020818303038152906040526040516103d49190611a76565b602060405180830381855afa1580156103f1573d6000803e3d6000fd5b5050506040513d601f19601f820116820180604052506104149190810190611250565b90505b949350505050565b600061042e8787878787610ae5565b73ffffffffffffffffffffffffffffffffffffffff1661044d83610288565b1490509695505050505050565b60006104678a8588610b07565b905060008114156104a65760647f4946ccdaf82fd5a93c40e96bfc3e4486f2b1d95879aecd4b186cd3e2adb3f4b960405160405180910390a250610740565b7fffffffffffffffffffffffffffffffffffffffffffffffffffffffffffffffff811415610544576104d788610d42565b156105105760657f4946ccdaf82fd5a93c40e96bfc3e4486f2b1d95879aecd4b186cd3e2adb3f4b960405160405180910390a250610740565b8760028b6040516105219190611aa4565b90815260200160405180910390209080519060200190610542929190610fe5565b505b7fffffffffffffffffffffffffffffffffffffffffffffffffffffffffffffffff61056f838c610d68565b14156105a95760667f4946ccdaf82fd5a93c40e96bfc3e4486f2b1d95879aecd4b186cd3e2adb3f4b960405160405180910390a250610740565b7fffffffffffffffffffffffffffffffffffffffffffffffffffffffffffffffff6105d78b88888888610ee1565b14156106115760677f4946ccdaf82fd5a93c40e96bfc3e4486f2b1d95879aecd4b186cd3e2adb3f4b960405160405180910390a250610740565b610619611065565b610624878688610f71565b9050600081908060018154018082558091505090600182039060005260206000209060030201600090919290919091506000820151816000016000820151816000019080519060200190610679929190611085565b506020820151816001019080519060200190610696929190611085565b50505060208201518160020190805190602001906106b5929190611085565b505050506000600160008054905003905060018c6040516106d69190611aa4565b908152602001604051809103902081908060018154018082558091505090600182039060005260206000200160009091929091909150555060c87f4946ccdaf82fd5a93c40e96bfc3e4486f2b1d95879aecd4b186cd3e2adb3f4b960405160405180910390a25050505b505050505050505050565b6060600060018360405161075f9190611aa4565b90815260200160405180910390208054905014156107ba5760006040519080825280602002602001820160405280156107b257816020015b61079f611105565b8152602001906001900390816107975790505b509050610ae0565b60606001836040516107cc9190611aa4565b908152602001604051809103902080548060200260200160405190810160405280929190818152602001828054801561082457602002820191906000526020600020905b815481526020019060010190808311610810575b505050505090506060815160405190808252806020026020018201604052801561086857816020015b610855611105565b81526020019060019003908161084d5790505b50905060008090505b8251811015610ad957610ab5600084838151811061088b57fe5b60200260200101518154811061089d57fe5b906000526020600020906003020160405180604001604052908160008201604051806040016040529081600082018054600181600116156101000203166002900480601f01602080910402602001604051908101604052809291908181526020018280546001816001161561010002031660029004801561095f5780601f106109345761010080835404028352916020019161095f565b820191906000526020600020905b81548152906001019060200180831161094257829003601f168201915b50505050508152602001600182018054600181600116156101000203166002900480601f016020809104026020016040519081016040528092919081815260200182805460018160011615610100020316600290048015610a015780601f106109d657610100808354040283529160200191610a01565b820191906000526020600020905b8154815290600101906020018083116109e457829003601f168201915b5050505050815250508152602001600282018054600181600116156101000203166002900480601f016020809104026020016040519081016040528092919081815260200182805460018160011615610100020316600290048015610aa75780601f10610a7c57610100808354040283529160200191610aa7565b820191906000526020600020905b815481529060010190602001808311610a8a57829003601f168201915b505050505081525050610fb7565b828281518110610ac157fe5b60200260200101819052508080600101915050610871565b5080925050505b919050565b6000610afc610af6878787876102fa565b836101be565b905095945050505050565b600080600185604051610b1a9190611aa4565b9081526020016040518091039020805490501415610b5a577fffffffffffffffffffffffffffffffffffffffffffffffffffffffffffffffff9050610d3b565b6000600185604051610b6c9190611aa4565b908152602001604051809103902060018087604051610b8b9190611aa4565b9081526020016040518091039020805490500381548110610ba857fe5b90600052602060002001549050600284604051610bc59190611a76565b602060405180830381855afa158015610be2573d6000803e3d6000fd5b5050506040513d601f19601f82011682018060405250610c059190810190611250565b600260008381548110610c1457fe5b9060005260206000209060030201600001600001604051610c359190611a8d565b602060405180830381855afa158015610c52573d6000803e3d6000fd5b5050506040513d601f19601f82011682018060405250610c759190810190611250565b1415610d3557600284604051610c8b9190611a76565b602060405180830381855afa158015610ca8573d6000803e3d6000fd5b5050506040513d601f19601f82011682018060405250610ccb9190810190611250565b600284604051610cdb9190611a76565b602060405180830381855afa158015610cf8573d6000803e3d6000fd5b5050506040513d601f19601f82011682018060405250610d1b9190810190611250565b1415610d2b576000915050610d3b565b6001915050610d3b565b60009150505b9392505050565b60006060829050600081511415610d5d576001915050610d63565b60009150505b919050565b60006060600283604051610d7c9190611aa4565b90815260200160405180910390208054600181600116156101000203166002900480601f016020809104026020016040519081016040528092919081815260200182805460018160011615610100020316600290048015610e1e5780601f10610df357610100808354040283529160200191610e1e565b820191906000526020600020905b815481529060010190602001808311610e0157829003601f168201915b50505050509050600281604051610e359190611a76565b602060405180830381855afa158015610e52573d6000803e3d6000fd5b5050506040513d601f19601f82011682018060405250610e759190810190611250565b600285604051610e859190611a76565b602060405180830381855afa158015610ea2573d6000803e3d6000fd5b5050506040513d601f19601f82011682018060405250610ec59190810190611250565b1415610ed5576001915050610edb565b60009150505b92915050565b600060606000600188604051610ef79190611aa4565b9081526020016040518091039020805490501415610f3a57868686604051602001610f2493929190611be2565b6040516020818303038152906040529050610f63565b86868686604051602001610f519493929190611c2e565b60405160208183030381529060405290505b600191505095945050505050565b610f79611065565b610f81611125565b60405180604001604052808681526020018581525090506040518060400160405280828152602001848152509150509392505050565b610fbf611065565b610fde8260000151600001518360000151602001518460200151610f71565b9050919050565b828054600181600116156101000203166002900490600052602060002090601f016020900481019282601f1061102657805160ff1916838001178555611054565b82800160010185558215611054579182015b82811115611053578251825591602001919060010190611038565b5b509050611061919061113f565b5090565b6040518060400160405280611078611164565b8152602001606081525090565b828054600181600116156101000203166002900490600052602060002090601f016020900481019282601f106110c657805160ff19168380011785556110f4565b828001600101855582156110f4579182015b828111156110f35782518255916020019190600101906110d8565b5b509050611101919061113f565b5090565b6040518060400160405280611118611164565b8152602001606081525090565b604051806040016040528060608152602001606081525090565b61116191905b8082111561115d576000816000905550600101611145565b5090565b90565b604051806040016040528060608152602001606081525090565b60008135905061118d81611e88565b92915050565b6000815190506111a281611e88565b92915050565b600082601f8301126111b957600080fd5b81356111cc6111c782611cd7565b611caa565b915080825260208301602083018583830111156111e857600080fd5b6111f3838284611e35565b50505092915050565b600082601f83011261120d57600080fd5b813561122061121b82611d03565b611caa565b9150808252602083016020830185838301111561123c57600080fd5b611247838284611e35565b50505092915050565b60006020828403121561126257600080fd5b600061127084828501611193565b91505092915050565b6000806040838503121561128c57600080fd5b600061129a8582860161117e565b925050602083013567ffffffffffffffff8111156112b757600080fd5b6112c3858286016111a8565b9150509250929050565b6000602082840312156112df57600080fd5b600082013567ffffffffffffffff8111156112f957600080fd5b611305848285016111a8565b91505092915050565b60006020828403121561132057600080fd5b600082013567ffffffffffffffff81111561133a57600080fd5b611346848285016111fc565b91505092915050565b6000806000806080858703121561136557600080fd5b600085013567ffffffffffffffff81111561137f57600080fd5b61138b878288016111fc565b945050602085013567ffffffffffffffff8111156113a857600080fd5b6113b4878288016111fc565b935050604085013567ffffffffffffffff8111156113d157600080fd5b6113dd878288016111fc565b925050606085013567ffffffffffffffff8111156113fa57600080fd5b611406878288016111fc565b91505092959194509250565b600080600080600060a0868803121561142a57600080fd5b600086013567ffffffffffffffff81111561144457600080fd5b611450888289016111fc565b955050602086013567ffffffffffffffff81111561146d57600080fd5b611479888289016111fc565b945050604086013567ffffffffffffffff81111561149657600080fd5b6114a2888289016111fc565b935050606086013567ffffffffffffffff8111156114bf57600080fd5b6114cb888289016111fc565b925050608086013567ffffffffffffffff8111156114e857600080fd5b6114f4888289016111fc565b9150509295509295909350565b60008060008060008060c0878903121561151a57600080fd5b600087013567ffffffffffffffff81111561153457600080fd5b61154089828a016111fc565b965050602087013567ffffffffffffffff81111561155d57600080fd5b61156989828a016111fc565b955050604087013567ffffffffffffffff81111561158657600080fd5b61159289828a016111fc565b945050606087013567ffffffffffffffff8111156115af57600080fd5b6115bb89828a016111fc565b935050608087013567ffffffffffffffff8111156115d857600080fd5b6115e489828a016111fc565b92505060a087013567ffffffffffffffff81111561160157600080fd5b61160d89828a016111fc565b9150509295509295509295565b60008060008060008060008060006101208a8c03121561163957600080fd5b60008a013567ffffffffffffffff81111561165357600080fd5b61165f8c828d016111fc565b99505060208a013567ffffffffffffffff81111561167c57600080fd5b6116888c828d016111fc565b98505060408a013567ffffffffffffffff8111156116a557600080fd5b6116b18c828d016111fc565b97505060608a013567ffffffffffffffff8111156116ce57600080fd5b6116da8c828d016111fc565b96505060808a013567ffffffffffffffff8111156116f757600080fd5b6117038c828d016111fc565b95505060a08a013567ffffffffffffffff81111561172057600080fd5b61172c8c828d016111fc565b94505060c08a013567ffffffffffffffff81111561174957600080fd5b6117558c828d016111fc565b93505060e08a013567ffffffffffffffff81111561177257600080fd5b61177e8c828d016111fc565b9250506101008a013567ffffffffffffffff81111561179c57600080fd5b6117a88c828d016111fc565b9150509295985092959850929598565b60006117c48383611a14565b905092915050565b6117d581611dd6565b82525050565b60006117e682611d54565b6117f08185611d8d565b93508360208202850161180285611d2f565b8060005b8581101561183e578484038952815161181f85826117b8565b945061182a83611d80565b925060208a01995050600181019050611806565b50829750879550505050505092915050565b61185981611de8565b82525050565b61186881611df4565b82525050565b600061187982611d5f565b6118838185611d9e565b9350611893818560208601611e44565b80840191505092915050565b6000815460018116600081146118bc57600181146118e157611925565b607f60028304166118cd8187611d9e565b955060ff1983168652808601935050611925565b600282046118ef8187611d9e565b95506118fa85611d3f565b60005b8281101561191c578154818901526001820191506020810190506118fd565b82880195505050505b505092915050565b600061193882611d75565b6119428185611dba565b9350611952818560208601611e44565b61195b81611e77565b840191505092915050565b600061197182611d75565b61197b8185611dcb565b935061198b818560208601611e44565b80840191505092915050565b60006119a282611d6a565b6119ac8185611da9565b93506119bc818560208601611e44565b6119c581611e77565b840191505092915050565b600060408301600083015184820360008601526119ed8282611997565b91505060208301518482036020860152611a078282611997565b9150508091505092915050565b60006040830160008301518482036000860152611a3182826119d0565b91505060208301518482036020860152611a4b8282611997565b9150508091505092915050565b611a6181611e1e565b82525050565b611a7081611e28565b82525050565b6000611a82828461186e565b915081905092915050565b6000611a99828461189f565b915081905092915050565b6000611ab08284611966565b915081905092915050565b6000611ac78286611966565b9150611ad38285611966565b9150611adf8284611966565b9150819050949350505050565b6000611af88287611966565b9150611b048286611966565b9150611b108285611966565b9150611b1c8284611966565b915081905095945050505050565b6000602082019050611b3f60008301846117cc565b92915050565b60006020820190508181036000830152611b5f81846117db565b905092915050565b6000602082019050611b7c6000830184611850565b92915050565b6000602082019050611b97600083018461185f565b92915050565b6000608082019050611bb2600083018761185f565b611bbf6020830186611a67565b611bcc604083018561185f565b611bd9606083018461185f565b95945050505050565b60006060820190508181036000830152611bfc818661192d565b90508181036020830152611c10818561192d565b90508181036040830152611c24818461192d565b9050949350505050565b60006080820190508181036000830152611c48818761192d565b90508181036020830152611c5c818661192d565b90508181036040830152611c70818561192d565b90508181036060830152611c84818461192d565b905095945050505050565b6000602082019050611ca46000830184611a58565b92915050565b6000604051905081810181811067ffffffffffffffff82111715611ccd57600080fd5b8060405250919050565b600067ffffffffffffffff821115611cee57600080fd5b601f19601f8301169050602081019050919050565b600067ffffffffffffffff821115611d1a57600080fd5b601f19601f8301169050602081019050919050565b6000819050602082019050919050565b60008190508160005260206000209050919050565b600081519050919050565b600081519050919050565b600081519050919050565b600081519050919050565b6000602082019050919050565b600082825260208201905092915050565b600081905092915050565b600082825260208201905092915050565b600082825260208201905092915050565b600081905092915050565b6000611de182611dfe565b9050919050565b60008115159050919050565b6000819050919050565b600073ffffffffffffffffffffffffffffffffffffffff82169050919050565b6000819050919050565b600060ff82169050919050565b82818337600083830152505050565b60005b83811015611e62578082015181840152602081019050611e47565b83811115611e71576000848401525b50505050565b6000601f19601f8301169050919050565b611e9181611df4565b8114611e9c57600080fd5b5056fea365627a7a7231582005f34c2bcd4f69a586079cc4c3c90cb96f84a9109103123b92d64647a980d79e6c6578706572696d656e74616cf564736f6c63430005100040",
  "source": "pragma solidity >= 0.5.0 <= 0.7.4;\r\npragma experimental ABIEncoderV2;\r\n\r\ncontract AnchorContract {\r\n\r\n    // error codes\r\n    uint constant statusOK = 200;\r\n    uint constant statusHashLinkOutOfSync = 100;\r\n    uint constant statusControlStringEmptyOnNewAnchor = 101;\r\n    uint constant statusHashOfPublicKeyDoesntMatchControlString = 102;\r\n    uint constant statusSignatureCheckFailed = 103;\r\n\r\n    event InvokeStatus(uint indexed statusCode);\r\n\r\n    struct AnchorHash {\r\n        string newHashLinkSSI;\r\n        string lastHashLinkSSI;\r\n    }\r\n\r\n    struct AnchorValue {\r\n        AnchorHash hash;\r\n        string ZKPValue;\r\n    }\r\n\r\n    // store all anchors\r\n    AnchorValue[] anchorStorage;\r\n    //keep a mapping between anchor(keySSI) and it's versions\r\n    mapping (string => uint[]) anchorVersions;\r\n\r\n    //mapping between anchorID and controlString.\r\n    mapping (string => string) anchorControlStrings;\r\n\r\n\r\n\r\n    constructor() public {\r\n\r\n\r\n    }\r\n\r\n\r\n    // public function\r\n    function addAnchor(string memory anchorID, string memory keySSIType, string memory controlString,\r\n        string memory vn, string memory newHashLinkSSI, string memory ZKPValue, string memory lastHashLinkSSI,\r\n        string memory signature, string memory publicKey) public {\r\n            //todo : implementa validation process\r\n            //todo : add error management\r\n            //todo : add new mapping between anchorID and controlString\r\n            //todo : use controlString if is already defined for anchorID and ignore the parameter\r\n            int validateAnchorContinuityResult = validateAnchorContinuity(anchorID, lastHashLinkSSI, newHashLinkSSI);\r\n            if (validateAnchorContinuityResult == 0)\r\n            {\r\n                //hash link are out of sync\r\n                emit InvokeStatus(statusHashLinkOutOfSync);\r\n                return;\r\n            }\r\n\r\n            if (validateAnchorContinuityResult == -1)\r\n            {\r\n                //anchor is new and we must check controlString\r\n                if (isStringEmpty(controlString))\r\n                {\r\n                    emit InvokeStatus(statusControlStringEmptyOnNewAnchor);\r\n                    return;\r\n                }\r\n                // add controlString to the mapping\r\n                anchorControlStrings[anchorID] = controlString;\r\n            }\r\n\r\n            //validate hash of the publicKey\r\n            if (validatePrivateKeyHash(publicKey,anchorID) == -1)\r\n            {\r\n                emit InvokeStatus(statusHashOfPublicKeyDoesntMatchControlString);\r\n                return;\r\n            }\r\n\r\n            //validate signature\r\n            if (validateHashSignature(anchorID, newHashLinkSSI,ZKPValue,lastHashLinkSSI, signature) == -1)\r\n            {\r\n                emit InvokeStatus(statusSignatureCheckFailed);\r\n                return;\r\n            }\r\n\r\n            //create new anchor value\r\n            AnchorValue memory anchorValue = buildAnchorValue(newHashLinkSSI,lastHashLinkSSI,ZKPValue);\r\n            anchorStorage.push(anchorValue);\r\n            uint versionIndex = anchorStorage.length - 1;\r\n            //update number of versions available for that anchor\r\n            anchorVersions[anchorID].push(versionIndex);\r\n\r\n            //all done, invoke ok status\r\n            emit InvokeStatus(statusOK);\r\n    }\r\n\r\n    function isStringEmpty(string memory data) private pure returns (bool)\r\n    {\r\n        bytes memory bdata = bytes(data);\r\n        if (bdata.length == 0)\r\n        {\r\n            return true;\r\n        }\r\n        return false;\r\n    }\r\n\r\n\r\n\r\n\r\n    function validatePrivateKeyHash(string memory publicKey, string memory anchorID) private returns (int)\r\n    {\r\n        string memory controlString =  anchorControlStrings[anchorID];\r\n        if (sha256(bytes(publicKey)) == sha256(bytes(controlString)))\r\n        {\r\n            //we have match. All is ok.\r\n            return 1;\r\n        }\r\n\r\n        //validation failed\r\n        return 0;\r\n    }\r\n\r\n    function recover(bytes32 hash, bytes memory signature) public pure returns (address)\r\n    {\r\n        bytes32 r;\r\n        bytes32 s;\r\n        uint8 v;\r\n\r\n        // Check the signature length\r\n        if (signature.length != 65) {\r\n            return (address(0));\r\n        }\r\n\r\n        // Divide the signature in r, s and v variables\r\n        // ecrecover takes the signature parameters, and the only way to get them\r\n        // currently is to use assembly.\r\n        // solium-disable-next-line security/no-inline-assembly\r\n        assembly {\r\n            r := mload(add(signature, 32))\r\n            s := mload(add(signature, 64))\r\n            v := byte(0, mload(add(signature, 96)))\r\n        }\r\n\r\n        // Version of signature should be 27 or 28, but 0 and 1 are also possible versions\r\n        if (v < 27) {\r\n            v += 27;\r\n        }\r\n\r\n        // If the version is correct return the signer address\r\n        if (v != 27 && v != 28) {\r\n            return (address(0));\r\n        } else {\r\n            // solium-disable-next-line arg-overflow\r\n            return ecrecover(hash, v, r, s);\r\n        }\r\n    }\r\n\r\n   // function verifySignature() public pure returns (bool) {\r\n   //     bytes32 message = 0x2b350a58f723b94ef3992ad0d3046f2398aef2fe117dc3a36737fb29df4a706a;\r\n   //     bytes memory sig = hex\"e6ca6508de09cbb639216743721076bc8beb7bb45e796e0e3422872f9f0fcd362e693be7ca40e2123dd1efaf71ebb94d38052458281ad3b69ec8977c8294928400\";\r\n   //     address addr = 0x8e6a1f13a9c6b9443fea4393291308ac4c965b69;\r\n//\r\n //       return recover(message, sig) == addr;\r\n  //  }\r\n\r\n    function validateSignature(string memory anchorID,string memory newHashLinkSSI,string memory ZKPValue,\r\n        string memory lastHashLinkSSI, string memory signature, string memory publicKey) public returns (bool)\r\n    {\r\n        return getAddressFromPublicKey(bytes(publicKey)) == uint256(getAddressFromHashAndSig(anchorID, newHashLinkSSI, ZKPValue, lastHashLinkSSI, signature));\r\n    }\r\n\r\n    function getAddressFromPublicKey(bytes memory publicKey) public returns (uint256){\r\n        return (uint(sha256(publicKey)) & 0x00FFFFFFFFFFFFFFFFFFFFFFFFFFFFFFFFFFFFFFFF);\r\n    }\r\n\r\n    function getAddressFromHashAndSig(string memory anchorID,string memory newHashLinkSSI,string memory ZKPValue,\r\n        string memory lastHashLinkSSI, string memory signature) public returns (address)\r\n    {\r\n        //return the public key derivation\r\n        return recover(getHashToBeChecked(anchorID,newHashLinkSSI,ZKPValue,lastHashLinkSSI), bytes(signature));\r\n    }\r\n\r\n    function getHashToBeChecked(string memory anchorID,string memory newHashLinkSSI,string memory ZKPValue,\r\n        string memory lastHashLinkSSI) public view returns (bytes32)\r\n    {\r\n        //use abi.encodePacked to not pad the inputs\r\n\r\n        if (anchorVersions[anchorID].length == 0)\r\n        {\r\n            return sha256(abi.encodePacked(anchorID,newHashLinkSSI,ZKPValue));\r\n        }\r\n            return sha256(abi.encodePacked(anchorID,newHashLinkSSI,ZKPValue,lastHashLinkSSI));\r\n    }\r\n\r\n    function validateHashSignature(string memory anchorID,string memory newHashLinkSSI,string memory ZKPValue,\r\n        string memory lastHashLinkSSI,string memory signature) private returns (int)\r\n    {\r\n        bytes memory hash;\r\n        if (anchorVersions[anchorID].length == 0)\r\n        {\r\n            hash = abi.encode(anchorID,newHashLinkSSI,ZKPValue);\r\n        }else{\r\n            hash = abi.encode(anchorID,newHashLinkSSI,ZKPValue,lastHashLinkSSI);\r\n        }\r\n        // call some function with the hash and the signature\r\n        // below is how to extract r,s,v from signature\r\n        //signature = signature.substr(2); //remove 0x\r\n        //const r = '0x' + signature.slice(0, 64)\r\n        //const s = '0x' + signature.slice(64, 128)\r\n        //const v = '0x' + signature.slice(128, 130)\r\n        //const v_decimal = web3.toDecimal(v)\r\n\r\n        // the output of the function is the public key that we get. If is match, the input is valid, otherwise we emit error and stop.\r\n\r\n        //solidity - ecrecover function\r\n        //ecrecover(bytes32 hash, uint8 v, bytes32 r, bytes32 s) returns\r\n        //(address): recover the address associated with the public key from\r\n        //elliptic curve signature or return zero on error\r\n        //address is a derivation from the publickey\r\n        // example of derivation publickey -> address (the address is not paybale)\r\n        //function checkPubKey(bytes pubkey) constant returns (bool){\r\n        //    return (uint(keccak256(pubkey)) & 0x00FFFFFFFFFFFFFFFFFFFFFFFFFFFFFFFFFFFFFFFF) == uint(msg.sender);\r\n        //}\r\n\r\n        //so we could use:\r\n        //function checkPubKey(bytes pubkey, bytes addressGotFromSignatureCheck) constant returns (bool){\r\n        //         return (uint(keccak256(pubkey)) & 0x00FFFFFFFFFFFFFFFFFFFFFFFFFFFFFFFFFFFFFFFF) == uint(addressGotFromSignatureCheck);\r\n        //        }\r\n\r\n        // we get address :\r\n        // addressGotFromSignatureCheck = ecrecover(hash,v,r,s);\r\n        return 1;\r\n    }\r\n\r\n    function validateAnchorContinuity(string memory anchorID, string memory lastHashLinkSSI, string memory newHashLinkSSI) private returns (int)\r\n    {\r\n        if (anchorVersions[anchorID].length == 0)\r\n        {\r\n            //first anchor to be added\r\n            return -1;\r\n        }\r\n        uint index = anchorVersions[anchorID][anchorVersions[anchorID].length-1];\r\n\r\n        //can import StringUtils contract or compare hashes\r\n        //hash compare seems faster\r\n        if (sha256(bytes(anchorStorage[index].hash.newHashLinkSSI)) == sha256(bytes(lastHashLinkSSI)))\r\n        {\r\n            //ensure we dont get double hashLinkSSI\r\n            if (sha256(bytes(newHashLinkSSI)) == sha256(bytes(lastHashLinkSSI)))\r\n            {\r\n                //raise out of sync. the hashlinks should be different, except 1st anchor\r\n                return 0;\r\n            }\r\n            //last hash link from contract is a match with the one passed\r\n            return 1;\r\n        }\r\n        //hash link is out of sync. the last hash link stored doesnt match with the last hash link passed\r\n        return 0;\r\n    }\r\n\r\n    function buildAnchorValue(string memory newHashLinkSSI, string memory lastHashLinkSSI, string memory ZKPValue) private pure returns (AnchorValue memory){\r\n        AnchorHash memory anchorHash = AnchorHash(newHashLinkSSI, lastHashLinkSSI);\r\n        return AnchorValue(anchorHash, ZKPValue);\r\n    }\r\n\r\n    function copyAnchorValue(AnchorValue memory anchorValue) private pure returns (AnchorValue memory){\r\n        return buildAnchorValue(anchorValue.hash.newHashLinkSSI, anchorValue.hash.lastHashLinkSSI, anchorValue.ZKPValue);\r\n    }\r\n\r\n    // public function\r\n    function getAnchorVersions(string memory anchor) public view returns (AnchorValue[] memory) {\r\n        if (anchorVersions[anchor].length == 0)\r\n        {\r\n            return new AnchorValue[](0);\r\n        }\r\n        uint[] memory indexList = anchorVersions[anchor];\r\n        AnchorValue[] memory result = new AnchorValue[] (indexList.length);\r\n        for (uint i=0;i<indexList.length;i++){\r\n            result[i] = copyAnchorValue(anchorStorage[indexList[i]]);\r\n        }\r\n\r\n        return result;\r\n\r\n    }\r\n\r\n}",
  "sourcePath": "D:/Pharma/Truffle/Ethereum/ethereum-anchoring/SmartContract/contracts/AnchorContract.sol",
  "compiler": {
    "name": "solc",
    "version": "0.5.16+commit.9c3226ce.Emscripten.clang"
  },
  "schemaVersion": "3.2.5",
  "updatedAt": "2020-11-12T11:52:25.494Z",
  "networkType": "ethereum",
  "devdoc": {
    "methods": {}
  },
  "userdoc": {
    "methods": {}
  }
}